{
  "_format": "hh-sol-artifact-1",
  "contractName": "OnChainHero",
  "sourceName": "contracts/OnChainHero.sol",
  "abi": [
    {
      "inputs": [],
      "stateMutability": "nonpayable",
      "type": "constructor"
    },
    {
      "anonymous": false,
      "inputs": [
        {
          "indexed": true,
          "internalType": "address",
          "name": "owner",
          "type": "address"
        },
        {
          "indexed": true,
          "internalType": "address",
          "name": "approved",
          "type": "address"
        },
        {
          "indexed": true,
          "internalType": "uint256",
          "name": "tokenId",
          "type": "uint256"
        }
      ],
      "name": "Approval",
      "type": "event"
    },
    {
      "anonymous": false,
      "inputs": [
        {
          "indexed": true,
          "internalType": "address",
          "name": "owner",
          "type": "address"
        },
        {
          "indexed": true,
          "internalType": "address",
          "name": "operator",
          "type": "address"
        },
        {
          "indexed": false,
          "internalType": "bool",
          "name": "approved",
          "type": "bool"
        }
      ],
      "name": "ApprovalForAll",
      "type": "event"
    },
    {
      "anonymous": false,
      "inputs": [
        {
          "indexed": false,
          "internalType": "address",
          "name": "sender",
          "type": "address"
        },
        {
          "indexed": false,
          "internalType": "uint256",
          "name": "tokenId",
          "type": "uint256"
        }
      ],
      "name": "NewEpicNFTMinted",
      "type": "event"
    },
    {
      "anonymous": false,
      "inputs": [
        {
          "indexed": true,
          "internalType": "address",
          "name": "from",
          "type": "address"
        },
        {
          "indexed": true,
          "internalType": "address",
          "name": "to",
          "type": "address"
        },
        {
          "indexed": true,
          "internalType": "uint256",
          "name": "tokenId",
          "type": "uint256"
        }
      ],
      "name": "Transfer",
      "type": "event"
    },
    {
      "inputs": [
        {
          "internalType": "address",
          "name": "to",
          "type": "address"
        },
        {
          "internalType": "uint256",
          "name": "tokenId",
          "type": "uint256"
        }
      ],
      "name": "approve",
      "outputs": [],
      "stateMutability": "nonpayable",
      "type": "function"
    },
    {
      "inputs": [
        {
          "internalType": "address",
          "name": "owner",
          "type": "address"
        }
      ],
      "name": "balanceOf",
      "outputs": [
        {
          "internalType": "uint256",
          "name": "",
          "type": "uint256"
        }
      ],
      "stateMutability": "view",
      "type": "function"
    },
    {
      "inputs": [
        {
          "internalType": "uint256",
          "name": "tokenId",
          "type": "uint256"
        }
      ],
      "name": "getApproved",
      "outputs": [
        {
          "internalType": "address",
          "name": "",
          "type": "address"
        }
      ],
      "stateMutability": "view",
      "type": "function"
    },
    {
      "inputs": [
        {
          "internalType": "address",
          "name": "owner",
          "type": "address"
        },
        {
          "internalType": "address",
          "name": "operator",
          "type": "address"
        }
      ],
      "name": "isApprovedForAll",
      "outputs": [
        {
          "internalType": "bool",
          "name": "",
          "type": "bool"
        }
      ],
      "stateMutability": "view",
      "type": "function"
    },
    {
      "inputs": [],
      "name": "makeAnEpicNFT",
      "outputs": [],
      "stateMutability": "nonpayable",
      "type": "function"
    },
    {
      "inputs": [],
      "name": "name",
      "outputs": [
        {
          "internalType": "string",
          "name": "",
          "type": "string"
        }
      ],
      "stateMutability": "view",
      "type": "function"
    },
    {
      "inputs": [
        {
          "internalType": "uint256",
          "name": "tokenId",
          "type": "uint256"
        }
      ],
      "name": "ownerOf",
      "outputs": [
        {
          "internalType": "address",
          "name": "",
          "type": "address"
        }
      ],
      "stateMutability": "view",
      "type": "function"
    },
    {
      "inputs": [
        {
          "internalType": "uint256",
          "name": "tokenId",
          "type": "uint256"
        }
      ],
      "name": "pickRandomBgColor",
      "outputs": [
        {
          "internalType": "string",
          "name": "",
          "type": "string"
        }
      ],
      "stateMutability": "view",
      "type": "function"
    },
    {
      "inputs": [
        {
          "internalType": "uint256",
          "name": "tokenId",
          "type": "uint256"
        }
      ],
      "name": "pickRandomCardColor",
      "outputs": [
        {
          "internalType": "string",
          "name": "",
          "type": "string"
        }
      ],
      "stateMutability": "view",
      "type": "function"
    },
    {
      "inputs": [
        {
          "internalType": "uint256",
          "name": "tokenId",
          "type": "uint256"
        }
      ],
      "name": "pickRandomFirstName",
      "outputs": [
        {
          "internalType": "string",
          "name": "",
          "type": "string"
        }
      ],
      "stateMutability": "view",
      "type": "function"
    },
    {
      "inputs": [
        {
          "internalType": "uint256",
          "name": "tokenId",
          "type": "uint256"
        }
      ],
      "name": "pickRandomLastName",
      "outputs": [
        {
          "internalType": "string",
          "name": "",
          "type": "string"
        }
      ],
      "stateMutability": "view",
      "type": "function"
    },
    {
      "inputs": [
        {
          "internalType": "uint256",
          "name": "tokenId",
          "type": "uint256"
        }
      ],
      "name": "pickRandomNoun",
      "outputs": [
        {
          "internalType": "string",
          "name": "",
          "type": "string"
        }
      ],
      "stateMutability": "view",
      "type": "function"
    },
    {
      "inputs": [
        {
          "internalType": "uint256",
          "name": "tokenId",
          "type": "uint256"
        }
      ],
      "name": "pickRandomPower",
      "outputs": [
        {
          "internalType": "string",
          "name": "",
          "type": "string"
        }
      ],
      "stateMutability": "view",
      "type": "function"
    },
    {
      "inputs": [
        {
          "internalType": "uint256",
          "name": "tokenId",
          "type": "uint256"
        }
      ],
      "name": "pickRandomPrefix",
      "outputs": [
        {
          "internalType": "string",
          "name": "",
          "type": "string"
        }
      ],
      "stateMutability": "view",
      "type": "function"
    },
    {
      "inputs": [
        {
          "internalType": "address",
          "name": "from",
          "type": "address"
        },
        {
          "internalType": "address",
          "name": "to",
          "type": "address"
        },
        {
          "internalType": "uint256",
          "name": "tokenId",
          "type": "uint256"
        }
      ],
      "name": "safeTransferFrom",
      "outputs": [],
      "stateMutability": "nonpayable",
      "type": "function"
    },
    {
      "inputs": [
        {
          "internalType": "address",
          "name": "from",
          "type": "address"
        },
        {
          "internalType": "address",
          "name": "to",
          "type": "address"
        },
        {
          "internalType": "uint256",
          "name": "tokenId",
          "type": "uint256"
        },
        {
          "internalType": "bytes",
          "name": "_data",
          "type": "bytes"
        }
      ],
      "name": "safeTransferFrom",
      "outputs": [],
      "stateMutability": "nonpayable",
      "type": "function"
    },
    {
      "inputs": [
        {
          "internalType": "address",
          "name": "operator",
          "type": "address"
        },
        {
          "internalType": "bool",
          "name": "approved",
          "type": "bool"
        }
      ],
      "name": "setApprovalForAll",
      "outputs": [],
      "stateMutability": "nonpayable",
      "type": "function"
    },
    {
      "inputs": [
        {
          "internalType": "bytes4",
          "name": "interfaceId",
          "type": "bytes4"
        }
      ],
      "name": "supportsInterface",
      "outputs": [
        {
          "internalType": "bool",
          "name": "",
          "type": "bool"
        }
      ],
      "stateMutability": "view",
      "type": "function"
    },
    {
      "inputs": [],
      "name": "symbol",
      "outputs": [
        {
          "internalType": "string",
          "name": "",
          "type": "string"
        }
      ],
      "stateMutability": "view",
      "type": "function"
    },
    {
      "inputs": [
        {
          "internalType": "uint256",
          "name": "tokenId",
          "type": "uint256"
        }
      ],
      "name": "tokenURI",
      "outputs": [
        {
          "internalType": "string",
          "name": "",
          "type": "string"
        }
      ],
      "stateMutability": "view",
      "type": "function"
    },
    {
      "inputs": [
        {
          "internalType": "address",
          "name": "from",
          "type": "address"
        },
        {
          "internalType": "address",
          "name": "to",
          "type": "address"
        },
        {
          "internalType": "uint256",
          "name": "tokenId",
          "type": "uint256"
        }
      ],
      "name": "transferFrom",
      "outputs": [],
      "stateMutability": "nonpayable",
      "type": "function"
    }
  ],
  "bytecode": "0x608060405260405180610160016040528061012e81526020016200f0aa61012e913960089080519060200190620000389291906200a338565b506040518060600160405280602881526020016200f22060289139600990805190602001906200006a9291906200a338565b50604051806101a0016040528061016781526020016200ed816101679139600a90805190602001906200009f9291906200a338565b506040518060c00160405280609481526020016200f01660949139600b9080519060200190620000d19291906200a338565b506040518060c00160405280609681526020016200ef8060969139600c9080519060200190620001039291906200a338565b506040518060c00160405280609881526020016200eee860989139600d9080519060200190620001359291906200a338565b506040518060800160405280604881526020016200f1d860489139600e9080519060200190620001679291906200a338565b5060405180610120016040528060fd81526020016200ec8460fd9139600f90805190602001906200019a9291906200a338565b506040518061012001604052806040518060400160405280600781526020017f234646424342430000000000000000000000000000000000000000000000000081525081526020016040518060400160405280600781526020017f234646453342430000000000000000000000000000000000000000000000000081525081526020016040518060400160405280600781526020017f234646464642430000000000000000000000000000000000000000000000000081525081526020016040518060400160405280600781526020017f234330464642430000000000000000000000000000000000000000000000000081525081526020016040518060400160405280600781526020017f234243464646390000000000000000000000000000000000000000000000000081525081526020016040518060400160405280600781526020017f234243434546460000000000000000000000000000000000000000000000000081525081526020016040518060400160405280600781526020017f234536424346460000000000000000000000000000000000000000000000000081525081526020016040518060400160405280600781526020017f234645424346460000000000000000000000000000000000000000000000000081525081526020016040518060400160405280600781526020017f23453145314531000000000000000000000000000000000000000000000000008152508152506010906009620003ca9291906200a3c9565b506040518061012001604052806040518060400160405280600781526020017f234443333433340000000000000000000000000000000000000000000000000081525081526020016040518060400160405280600781526020017f234543384631420000000000000000000000000000000000000000000000000081525081526020016040518060400160405280600781526020017f234543453231420000000000000000000000000000000000000000000000000081525081526020016040518060400160405280600781526020017f233146454331420000000000000000000000000000000000000000000000000081525081526020016040518060400160405280600781526020017f233142454345390000000000000000000000000000000000000000000000000081525081526020016040518060400160405280600781526020017f233146314245430000000000000000000000000000000000000000000000000081525081526020016040518060400160405280600781526020017f233936314245430000000000000000000000000000000000000000000000000081525081526020016040518060400160405280600781526020017f234443314245430000000000000000000000000000000000000000000000000081525081526020016040518060400160405280600781526020017f23323232323232000000000000000000000000000000000000000000000000008152508152506011906009620005fa9291906200a3c9565b50604051806106e001604052806040518060400160405280600381526020017f4d616e000000000000000000000000000000000000000000000000000000000081525081526020016040518060400160405280600381526020017f477579000000000000000000000000000000000000000000000000000000000081525081526020016040518060400160405280600381526020017f426f79000000000000000000000000000000000000000000000000000000000081525081526020016040518060400160405280600481526020017f4769726c0000000000000000000000000000000000000000000000000000000081525081526020016040518060400160405280600581526020017f576f6d616e00000000000000000000000000000000000000000000000000000081525081526020016040518060400160405280600581526020017f5769646f7700000000000000000000000000000000000000000000000000000081525081526020016040518060400160405280600481526020017f4c6164790000000000000000000000000000000000000000000000000000000081525081526020016040518060400160405280600681526020017f506572736f6e000000000000000000000000000000000000000000000000000081525081526020016040518060400160405280600481526020017f4865726f0000000000000000000000000000000000000000000000000000000081525081526020016040518060400160405280600781526020017f446976696e65720000000000000000000000000000000000000000000000000081525081526020016040518060400160405280600881526020017f526f636b7374617200000000000000000000000000000000000000000000000081525081526020016040518060400160405280600581526020017f476e6f6d6500000000000000000000000000000000000000000000000000000081525081526020016040518060400160405280600581526020017f5361696e7400000000000000000000000000000000000000000000000000000081525081526020016040518060400160405280600581526020017f4167656e7400000000000000000000000000000000000000000000000000000081525081526020016040518060400160405280600381526020017f537079000000000000000000000000000000000000000000000000000000000081525081526020016040518060400160405280600481526020017f4c696f6e0000000000000000000000000000000000000000000000000000000081525081526020016040518060400160405280600681526020017f537069646572000000000000000000000000000000000000000000000000000081525081526020016040518060400160405280600381526020017f426174000000000000000000000000000000000000000000000000000000000081525081526020016040518060400160405280600481526020017f417175610000000000000000000000000000000000000000000000000000000081525081526020016040518060400160405280600781526020017f4f63746f7075730000000000000000000000000000000000000000000000000081525081526020016040518060400160405280600381526020017f436174000000000000000000000000000000000000000000000000000000000081525081526020016040518060400160405280600481526020017f43726f770000000000000000000000000000000000000000000000000000000081525081526020016040518060400160405280600681526020017f4b6e69676874000000000000000000000000000000000000000000000000000081525081526020016040518060400160405280600781526020017f50616e746865720000000000000000000000000000000000000000000000000081525081526020016040518060400160405280600581526020017f517565656e00000000000000000000000000000000000000000000000000000081525081526020016040518060400160405280600481526020017f426f6c740000000000000000000000000000000000000000000000000000000081525081526020016040518060400160405280600981526020017f426972644861776b73000000000000000000000000000000000000000000000081525081526020016040518060400160405280600581526020017f486561727400000000000000000000000000000000000000000000000000000081525081526020016040518060400160405280600581526020017f4c6967687400000000000000000000000000000000000000000000000000000081525081526020016040518060400160405280600781526020017f50617472696f740000000000000000000000000000000000000000000000000081525081526020016040518060400160405280600781526020017f5068616e746f6d0000000000000000000000000000000000000000000000000081525081526020016040518060400160405280600581526020017f426c61646500000000000000000000000000000000000000000000000000000081525081526020016040518060400160405280600681526020017f536869656c64000000000000000000000000000000000000000000000000000081525081526020016040518060400160405280600581526020017f53746f726d00000000000000000000000000000000000000000000000000000081525081526020016040518060400160405280600581526020017f546967657200000000000000000000000000000000000000000000000000000081525081526020016040518060400160405280600681526020017f566f6f646f6f000000000000000000000000000000000000000000000000000081525081526020016040518060400160405280600381526020017f426565000000000000000000000000000000000000000000000000000000000081525081526020016040518060400160405280600781526020017f416d65726963610000000000000000000000000000000000000000000000000081525081526020016040518060400160405280600781526020017f4272697461696e0000000000000000000000000000000000000000000000000081525081526020016040518060400160405280600581526020017f43726f737300000000000000000000000000000000000000000000000000000081525081526020016040518060400160405280600881526020017f556e69766572736500000000000000000000000000000000000000000000000081525081526020016040518060400160405280600781526020017f4176656e6765720000000000000000000000000000000000000000000000000081525081526020016040518060400160405280600881526020017f437275736164657200000000000000000000000000000000000000000000000081525081526020016040518060400160405280600681526020017f44796e616d6f000000000000000000000000000000000000000000000000000081525081526020016040518060400160405280600481526020017f4b696e670000000000000000000000000000000000000000000000000000000081525081526020016040518060400160405280600581526020017f426561737400000000000000000000000000000000000000000000000000000081525081526020016040518060400160405280600781526020017f50686f656e69780000000000000000000000000000000000000000000000000081525081526020016040518060400160405280600781526020017f537472616e67650000000000000000000000000000000000000000000000000081525081526020016040518060400160405280600481526020017f4c6f72640000000000000000000000000000000000000000000000000000000081525081526020016040518060400160405280600581526020017f46726f737400000000000000000000000000000000000000000000000000000081525081526020016040518060400160405280600781526020017f6f6620446f6f6d0000000000000000000000000000000000000000000000000081525081526020016040518060400160405280600781526020017f4d616368696e650000000000000000000000000000000000000000000000000081525081526020016040518060400160405280600581526020017f526964657200000000000000000000000000000000000000000000000000000081525081526020016040518060400160405280600781526020017f57617272696f720000000000000000000000000000000000000000000000000081525081526020016040518060400160405280600581526020017f57697463680000000000000000000000000000000000000000000000000000008152508152506012906037620012c49291906200a430565b506040518061052001604052806040518060400160405280600381526020017f4d722e000000000000000000000000000000000000000000000000000000000081525081526020016040518060400160405280600381526020017f536972000000000000000000000000000000000000000000000000000000000081525081526020016040518060400160405280600981526020017f507265736964656e74000000000000000000000000000000000000000000000081525081526020016040518060400160405280600381526020017f546865000000000000000000000000000000000000000000000000000000000081525081526020016040518060400160405280600481526020017f4d72732e0000000000000000000000000000000000000000000000000000000081525081526020016040518060400160405280600381526020017f4d732e000000000000000000000000000000000000000000000000000000000081525081526020016040518060400160405280600681526020017f446f63746f72000000000000000000000000000000000000000000000000000081525081526020016040518060400160405280600581526020017f4167656e7400000000000000000000000000000000000000000000000000000081525081526020016040518060400160405280600781526020017f4361707461696e0000000000000000000000000000000000000000000000000081525081526020016040518060400160405280600481526020017f49726f6e0000000000000000000000000000000000000000000000000000000081525081526020016040518060400160405280600581526020017f4261726f6e00000000000000000000000000000000000000000000000000000081525081526020016040518060400160405280600581526020017f426c61636b00000000000000000000000000000000000000000000000000000081525081526020016040518060400160405280600381526020017f426967000000000000000000000000000000000000000000000000000000000081525081526020016040518060400160405280600981526020017f496e76697369626c65000000000000000000000000000000000000000000000081525081526020016040518060400160405280600581526020017f547572626f00000000000000000000000000000000000000000000000000000081525081526020016040518060400160405280600581526020017f477265656e00000000000000000000000000000000000000000000000000000081525081526020016040518060400160405280600681526020017f416d617a6f6e000000000000000000000000000000000000000000000000000081525081526020016040518060400160405280600381526020017f416e74000000000000000000000000000000000000000000000000000000000081525081526020016040518060400160405280600681526020017f576f6e646572000000000000000000000000000000000000000000000000000081525081526020016040518060400160405280600381526020017f476f64000000000000000000000000000000000000000000000000000000000081525081526020016040518060400160405280600781526020017f4372696d736f6e0000000000000000000000000000000000000000000000000081525081526020016040518060400160405280600581526020017f446561746800000000000000000000000000000000000000000000000000000081525081526020016040518060400160405280600581526020017f447265616d00000000000000000000000000000000000000000000000000000081525081526020016040518060400160405280600481526020017f4563686f0000000000000000000000000000000000000000000000000000000081525081526020016040518060400160405280600481526020017f44796e610000000000000000000000000000000000000000000000000000000081525081526020016040518060400160405280600481526020017f466972650000000000000000000000000000000000000000000000000000000081525081526020016040518060400160405280600381526020017f496365000000000000000000000000000000000000000000000000000000000081525081526020016040518060400160405280600381526020017f576172000000000000000000000000000000000000000000000000000000000081525081526020016040518060400160405280600481526020017f467572790000000000000000000000000000000000000000000000000000000081525081526020016040518060400160405280600581526020017f47686f737400000000000000000000000000000000000000000000000000000081525081526020016040518060400160405280600481526020017f4c6176610000000000000000000000000000000000000000000000000000000081525081526020016040518060400160405280600681526020017f4c6974746c65000000000000000000000000000000000000000000000000000081525081526020016040518060400160405280600981526020017f4c696768746e696e67000000000000000000000000000000000000000000000081525081526020016040518060400160405280600681526020017f4d6164616d65000000000000000000000000000000000000000000000000000081525081526020016040518060400160405280600581526020017f4f6d65676100000000000000000000000000000000000000000000000000000081525081526020016040518060400160405280600681526020017f50737963686f000000000000000000000000000000000000000000000000000081525081526020016040518060400160405280600681526020017f536861646f77000000000000000000000000000000000000000000000000000081525081526020016040518060400160405280600781526020017f5468756e6465720000000000000000000000000000000000000000000000000081525081526020016040518060400160405280600881526020017f536361726c65747400000000000000000000000000000000000000000000000081525081526020016040518060400160405280600181526020017f580000000000000000000000000000000000000000000000000000000000000081525081526020016040518060400160405280600681526020017f5a6f6d6269650000000000000000000000000000000000000000000000000000815250815250601390602962001c549291906200a497565b50604051806115a001604052806040518060400160405280600d81526020017f4162696c6974792053686966740000000000000000000000000000000000000081525081526020016040518060400160405280600a81526020017f4162736f727074696f6e0000000000000000000000000000000000000000000081525081526020016040518060400160405280600881526020017f416363757261637900000000000000000000000000000000000000000000000081525081526020016040518060400160405280600a81526020017f41646170746174696f6e0000000000000000000000000000000000000000000081525081526020016040518060400160405280600b81526020017f4165726f6b696e6573697300000000000000000000000000000000000000000081525081526020016040518060400160405280600781526020017f4167696c6974790000000000000000000000000000000000000000000000000081525081526020016040518060400160405280601181526020017f416e696d616c204174747269627574657300000000000000000000000000000081525081526020016040518060400160405280600e81526020017f416e696d616c20436f6e74726f6c00000000000000000000000000000000000081525081526020016040518060400160405280601681526020017f416e696d616c204f7269656e74656420506f776572730000000000000000000081525081526020016040518060400160405280600981526020017f416e696d6174696f6e000000000000000000000000000000000000000000000081525081526020016040518060400160405280600c81526020017f416e74692d47726176697479000000000000000000000000000000000000000081525081526020016040518060400160405280600a81526020017f41706f7468656f7369730000000000000000000000000000000000000000000081525081526020016040518060400160405280601181526020017f41737472616c2050726f6a656374696f6e00000000000000000000000000000081525081526020016040518060400160405280600b81526020017f41737472616c205472617000000000000000000000000000000000000000000081525081526020016040518060400160405280600d81526020017f41737472616c2054726176656c0000000000000000000000000000000000000081525081526020016040518060400160405280600b81526020017f41746d6f6b696e6573697300000000000000000000000000000000000000000081525081526020016040518060400160405280600c81526020017f417564696f6b696e65736973000000000000000000000000000000000000000081525081526020016040518060400160405280600681526020017f42616e697368000000000000000000000000000000000000000000000000000081525081526020016040518060400160405280600a81526020017f42696f6b696e657369730000000000000000000000000000000000000000000081525081526020016040518060400160405280600b81526020017f42756c6c65742054696d6500000000000000000000000000000000000000000081525081526020016040518060400160405280600a81526020017f43616d6f75666c6167650000000000000000000000000000000000000000000081525081526020016040518060400160405280600e81526020017f4368616e67696e672041726d6f7200000000000000000000000000000000000081525081526020016040518060400160405280600d81526020017f43686c6f726f6b696e657369730000000000000000000000000000000000000081525081526020016040518060400160405280600d81526020017f4368726f6e6f6b696e657369730000000000000000000000000000000000000081525081526020016040518060400160405280600c81526020017f436c616972766f79616e6365000000000000000000000000000000000000000081525081526020016040518060400160405280600881526020017f436c6f616b696e6700000000000000000000000000000000000000000000000081525081526020016040518060400160405280600f81526020017f436f6c6420526573697374616e6365000000000000000000000000000000000081525081526020016040518060400160405280601b81526020017f43726f73732d44696d656e73696f6e616c2041776172656e657373000000000081525081526020016040518060400160405280601881526020017f43726f73732d44696d656e73696f6e616c2054726176656c000000000000000081525081526020016040518060400160405280600b81526020017f4372796f6b696e6573697300000000000000000000000000000000000000000081525081526020016040518060400160405280600c81526020017f44616e6765722053656e7365000000000000000000000000000000000000000081525081526020016040518060400160405280601681526020017f4461726b666f726365204d616e6970756c6174696f6e0000000000000000000081525081526020016040518060400160405280600b81526020017f446561746820546f75636800000000000000000000000000000000000000000081525081526020016040518060400160405280600f81526020017f44656e7369747920436f6e74726f6c000000000000000000000000000000000081525081526020016040518060400160405280600981526020017f446578746572697479000000000000000000000000000000000000000000000081525081526020016040518060400160405280600b81526020017f4475706c69636174696f6e00000000000000000000000000000000000000000081525081526020016040518060400160405280600a81526020017f4475726162696c6974790000000000000000000000000000000000000000000081525081526020016040518060400160405280600b81526020017f4563686f6b696e6573697300000000000000000000000000000000000000000081525081526020016040518060400160405280600a81526020017f456c61737469636974790000000000000000000000000000000000000000000081525081526020016040518060400160405280601481526020017f456c656374726963616c205472616e73706f727400000000000000000000000081525081526020016040518060400160405280600e81526020017f456c656374726f6b696e6573697300000000000000000000000000000000000081525081526020016040518060400160405280601c81526020017f456c656d656e74616c205472616e736d6f6772696669636174696f6e0000000081525081526020016040518060400160405280601081526020017f456d7061746879456e647572616e63650000000000000000000000000000000081525081526020016040518060400160405280601181526020017f456e65726779204162736f727074696f6e00000000000000000000000000000081525081526020016040518060400160405280600c81526020017f456e657267792041726d6f72000000000000000000000000000000000000000081525081526020016040518060400160405280600c81526020017f456e65726779204265616d73000000000000000000000000000000000000000081525081526020016040518060400160405280600d81526020017f456e6572677920426c617374730000000000000000000000000000000000000081525081526020016040518060400160405280601181526020017f456e6572677920436f6e7374727563747300000000000000000000000000000081525081526020016040518060400160405280601381526020017f456e65726779204d616e6970756c6174696f6e0000000000000000000000000081525081526020016040518060400160405280601181526020017f456e6572677920526573697374616e636500000000000000000000000000000081525081526020016040518060400160405280601081526020017f456e68616e6365642048656172696e670000000000000000000000000000000081525081526020016040518060400160405280600f81526020017f456e68616e636564204d656d6f7279000000000000000000000000000000000081525081526020016040518060400160405280600f81526020017f456e68616e6365642053656e736573000000000000000000000000000000000081525081526020016040518060400160405280600e81526020017f456e68616e63656420536d656c6c00000000000000000000000000000000000081525081526020016040518060400160405280600e81526020017f456e68616e63656420546f75636800000000000000000000000000000000000081525081526020016040518060400160405280601281526020017f456e74726f70792050726f6a656374696f6e000000000000000000000000000081525081526020016040518060400160405280600f81526020017f4669726520526573697374616e6365000000000000000000000000000000000081525081526020016040518060400160405280600681526020017f466c69676874000000000000000000000000000000000000000000000000000081525081526020016040518060400160405280600c81526020017f466f726365204669656c6473000000000000000000000000000000000000000081525081526020016040518060400160405280600a81526020017f47656f6b696e657369730000000000000000000000000000000000000000000081525081526020016040518060400160405280600781526020017f476c6964696e670000000000000000000000000000000000000000000000000081525081526020016040518060400160405280600e81526020017f4772617669746f6b696e6573697300000000000000000000000000000000000081525081526020016040518060400160405280600c81526020017f4772696d2052656170696e67000000000000000000000000000000000000000081525081526020016040518060400160405280600e81526020017f4865616c696e6720466163746f7200000000000000000000000000000000000081525081526020016040518060400160405280600f81526020017f486561742047656e65726174696f6e000000000000000000000000000000000081525081526020016040518060400160405280600f81526020017f4865617420526573697374616e6365000000000000000000000000000000000081525081526020016040518060400160405280601981526020017f48756d616e20706879736963616c2070657266656374696f6e0000000000000081525081526020016040518060400160405280600c81526020017f487964726f6b696e65736973000000000000000000000000000000000000000081525081526020016040518060400160405280600c81526020017f48797065726b696e65736973000000000000000000000000000000000000000081525081526020016040518060400160405280600c81526020017f4879706e6f6b696e65736973000000000000000000000000000000000000000081525081526020016040518060400160405280600c81526020017f496c6c756d696e6174696f6e000000000000000000000000000000000000000081525081526020016040518060400160405280600981526020017f496c6c7573696f6e73000000000000000000000000000000000000000000000081525081526020016040518060400160405280600b81526020017f496d6d6f7274616c69747900000000000000000000000000000000000000000081525081526020016040518060400160405280600881526020017f496e73616e69747900000000000000000000000000000000000000000000000081525081526020016040518060400160405280600d81526020017f496e74616e676962696c6974790000000000000000000000000000000000000081525081526020016040518060400160405280600c81526020017f496e74656c6c6967656e6365000000000000000000000000000000000000000081525081526020016040518060400160405280601281526020017f496e74756974697665206170746974756465000000000000000000000000000081525081526020016040518060400160405280600c81526020017f496e7669736962696c697479000000000000000000000000000000000000000081525081526020016040518060400160405280600f81526020017f496e76756c6e65726162696c697479000000000000000000000000000000000081525081526020016040518060400160405280600481526020017f4a756d700000000000000000000000000000000000000000000000000000000081525081526020016040518060400160405280601281526020017f4c616e7465726e20506f7765722052696e67000000000000000000000000000081525081526020016040518060400160405280601081526020017f4c6174656e74204162696c69746965730000000000000000000000000000000081525081526020016040518060400160405280600a81526020017f4c657669746174696f6e0000000000000000000000000000000000000000000081525081526020016040518060400160405280600981526020017f4c6f6e676576697479000000000000000000000000000000000000000000000081525081526020016040518060400160405280600581526020017f4d6167696300000000000000000000000000000000000000000000000000000081525081526020016040518060400160405280601081526020017f4d6167696320526573697374616e63650000000000000000000000000000000081525081526020016040518060400160405280600e81526020017f4d61676e65746f6b696e6573697300000000000000000000000000000000000081525081526020016040518060400160405280601181526020017f4d6174746572204162736f727074696f6e00000000000000000000000000000081525081526020016040518060400160405280601181526020017f4d656c74696e674d696e6420426c61737400000000000000000000000000000081525081526020016040518060400160405280600c81526020017f4d696e6420436f6e74726f6c000000000000000000000000000000000000000081525081526020016040518060400160405280601781526020017f4d696e6420436f6e74726f6c20526573697374616e636500000000000000000081525081526020016040518060400160405280601481526020017f4d6f6c6563756c617220436f6d62757374696f6e00000000000000000000000081525081526020016040518060400160405280601581526020017f4d6f6c6563756c6172204469737369706174696f6e000000000000000000000081525081526020016040518060400160405280601881526020017f4d6f6c6563756c617220496d6d6f62696c697a6174696f6e000000000000000081525081526020016040518060400160405280601681526020017f4d6f6c6563756c6172204d616e6970756c6174696f6e0000000000000000000081525081526020016040518060400160405280600d81526020017f4e61747572616c2041726d6f720000000000000000000000000000000000000081525081526020016040518060400160405280600f81526020017f4e61747572616c20576561706f6e73000000000000000000000000000000000081525081526020016040518060400160405280600a81526020017f4e6f766120466f7263650000000000000000000000000000000000000000000081525081526020016040518060400160405280600e81526020017f4f6d6e696c696e6775616c69736d00000000000000000000000000000000000081525081526020016040518060400160405280600b81526020017f4f6d6e69706f74656e636500000000000000000000000000000000000000000081525081526020016040518060400160405280600e81526020017f4f6d6e69747269784f7262696e6700000000000000000000000000000000000081525081526020016040518060400160405280600781526020017f50686173696e670000000000000000000000000000000000000000000000000081525081526020016040518060400160405280601581526020017f50686f746f67726170686963205265666c65786573000000000000000000000081525081526020016040518060400160405280600c81526020017f50686f746f6b696e65736973000000000000000000000000000000000000000081525081526020016040518060400160405280601081526020017f506879736963616c20416e6f6d616c790000000000000000000000000000000081525081526020016040518060400160405280600f81526020017f506f7274616c204372656174696f6e000000000000000000000000000000000081525081526020016040518060400160405280600a81526020017f506f7373657373696f6e0000000000000000000000000000000000000000000081525081526020016040518060400160405280601081526020017f506f776572204162736f727074696f6e0000000000000000000000000000000081525081526020016040518060400160405280601281526020017f506f776572204175676d656e746174696f6e000000000000000000000000000081525081526020016040518060400160405280600c81526020017f506f77657220436f736d6963000000000000000000000000000000000000000081525081526020016040518060400160405280600f81526020017f506f776572204e756c6c6966696572000000000000000000000000000000000081525081526020016040518060400160405280600b81526020017f506f7765722053656e736500000000000000000000000000000000000000000081525081526020016040518060400160405280600a81526020017f506f77657220537569740000000000000000000000000000000000000000000081525081526020016040518060400160405280600c81526020017f507265636f676e6974696f6e000000000000000000000000000000000000000081525081526020016040518060400160405280601881526020017f50726f626162696c697479204d616e6970756c6174696f6e000000000000000081525081526020016040518060400160405280600a81526020017f50726f6a656374696f6e0000000000000000000000000000000000000000000081525081526020016040518060400160405280600e81526020017f5073696f6e696320506f7765727300000000000000000000000000000000000081525081526020016040518060400160405280600d81526020017f50737963686f6b696e657369730000000000000000000000000000000000000081525081526020016040518060400160405280600b81526020017f5079726f6b696e6573697300000000000000000000000000000000000000000081525081526020016040518060400160405280601381526020017f517761726469616e20506f7765722052696e670000000000000000000000000081525081526020016040518060400160405280600b81526020017f52616461722053656e736500000000000000000000000000000000000000000081525081526020016040518060400160405280601481526020017f526164696174696f6e204162736f727074696f6e00000000000000000000000081525081526020016040518060400160405280601181526020017f526164696174696f6e20436f6e74726f6c00000000000000000000000000000081525081526020016040518060400160405280601281526020017f526164696174696f6e20496d6d756e697479000000000000000000000000000081525081526020016040518060400160405280600f81526020017f5265616c6974792057617270696e67000000000000000000000000000000000081525081526020016040518060400160405280600881526020017f5265666c6578657300000000000000000000000000000000000000000000000081525081526020016040518060400160405280600c81526020017f526567656e65726174696f6e000000000000000000000000000000000000000081525081526020016040518060400160405280600c81526020017f526573757272656374696f6e000000000000000000000000000000000000000081525081526020016040518060400160405280600d81526020017f536569736d696320506f7765720000000000000000000000000000000000000081525081526020016040518060400160405280600f81526020017f53656c662d53757374656e616e6365000000000000000000000000000000000081525081526020016040518060400160405280600a81526020017f53657061726174696f6e0000000000000000000000000000000000000000000081525081526020016040518060400160405280600d81526020017f53686170657368696674696e670000000000000000000000000000000000000081525081526020016040518060400160405280600d81526020017f53697a65204368616e67696e670000000000000000000000000000000000000081525081526020016040518060400160405280601181526020017f536f6e6172536f6e69632053637265616d00000000000000000000000000000081525081526020016040518060400160405280601181526020017f5370617469616c2041776172656e65737300000000000000000000000000000081525081526020016040518060400160405280600781526020017f5374616d696e610000000000000000000000000000000000000000000000000081525081526020016040518060400160405280600781526020017f537465616c74680000000000000000000000000000000000000000000000000081525081526020016040518060400160405280600b81526020017f5375622d4d6172696e657200000000000000000000000000000000000000000081525081526020016040518060400160405280601381526020017f5375627374616e636520536563726574696f6e0000000000000000000000000081525081526020016040518060400160405280600981526020017f53756d6d6f6e696e67000000000000000000000000000000000000000000000081525081526020016040518060400160405280600c81526020017f537570657220427265617468000000000000000000000000000000000000000081525081526020016040518060400160405280600b81526020017f537570657220537065656400000000000000000000000000000000000000000081525081526020016040518060400160405280600e81526020017f537570657220537472656e67746800000000000000000000000000000000000081525081526020016040518060400160405280601081526020017f53796d62696f746520436f7374756d650000000000000000000000000000000081525081526020016040518060400160405280601481526020017f546563686e6f706174682f43796265727061746800000000000000000000000081525081526020016040518060400160405280600b81526020017f54656c656b696e6573697300000000000000000000000000000000000000000081525081526020016040518060400160405280600981526020017f54656c657061746879000000000000000000000000000000000000000000000081525081526020016040518060400160405280601481526020017f54656c65706174687920526573697374616e636500000000000000000000000081525081526020016040518060400160405280600d81526020017f54656c65706f72746174696f6e0000000000000000000000000000000000000081525081526020016040518060400160405280600c81526020017f54657272616b696e65736973000000000000000000000000000000000000000081525081526020016040518060400160405280600d81526020017f546865726d6f6b696e657369730000000000000000000000000000000000000081525081526020016040518060400160405280600e81526020017f5468697273746f6b696e6573697300000000000000000000000000000000000081525081526020016040518060400160405280600b81526020017f54696d652054726176656c00000000000000000000000000000000000000000081525081526020016040518060400160405280601181526020017f54696d656672616d6520436f6e74726f6c00000000000000000000000000000081525081526020016040518060400160405280600b81526020017f546f78696b696e6573697300000000000000000000000000000000000000000081525081526020016040518060400160405280601c81526020017f546f78696e20616e64204469736561736520526573697374616e63650000000081525081526020016040518060400160405280600c81526020017f556d6272616b696e65736973000000000000000000000000000000000000000081525081526020016040518060400160405280601481526020017f556e646572776174657220627265617468696e6700000000000000000000000081525081526020016040518060400160405280601081526020017f5661706f726973696e67204265616d730000000000000000000000000000000081525081526020016040518060400160405280600d81526020017f566973696f6e202d204372796f0000000000000000000000000000000000000081525081526020016040518060400160405280600d81526020017f566973696f6e202d20486561740000000000000000000000000000000000000081525081526020016040518060400160405280601181526020017f566973696f6e202d20496e66726172656400000000000000000000000000000081525081526020016040518060400160405280601481526020017f566973696f6e202d204d6963726f73636f70696300000000000000000000000081525081526020016040518060400160405280600e81526020017f566973696f6e202d204e6967687400000000000000000000000000000000000081525081526020016040518060400160405280601381526020017f566973696f6e202d2054656c6573636f7069630000000000000000000000000081525081526020016040518060400160405280601081526020017f566973696f6e202d20546865726d616c0000000000000000000000000000000081525081526020016040518060400160405280600e81526020017f566973696f6e202d20582d52617900000000000000000000000000000000000081525081526020016040518060400160405280600b81526020017f566974616b696e6573697300000000000000000000000000000000000000000081525081526020016040518060400160405280600c81526020017f57616c6c637261776c696e67000000000000000000000000000000000000000081525081526020016040518060400160405280601381526020017f576561706f6e2d626173656420506f776572730000000000000000000000000081525081526020016040518060400160405280600e81526020017f576561706f6e73204d617374657200000000000000000000000000000000000081525081526020016040518060400160405280600c81526020017f576562204372656174696f6e000000000000000000000000000000000000000081525081526020016040518060400160405280600781526020017f57697368696e670000000000000000000000000000000000000000000000000081525081525060149060ad620044509291906200a4fe565b5060405180610c8001604052806040518060400160405280600681526020017f4f6c69766961000000000000000000000000000000000000000000000000000081525081526020016040518060400160405280600481526020017f4c69616d0000000000000000000000000000000000000000000000000000000081525081526020016040518060400160405280600481526020017f456d6d610000000000000000000000000000000000000000000000000000000081525081526020016040518060400160405280600481526020017f4e6f61680000000000000000000000000000000000000000000000000000000081525081526020016040518060400160405280600681526020017f416d656c6961000000000000000000000000000000000000000000000000000081525081526020016040518060400160405280600681526020017f4f6c69766572000000000000000000000000000000000000000000000000000081525081526020016040518060400160405280600381526020017f417661000000000000000000000000000000000000000000000000000000000081525081526020016040518060400160405280600681526020017f456c696a6168000000000000000000000000000000000000000000000000000081525081526020016040518060400160405280600681526020017f536f70686961000000000000000000000000000000000000000000000000000081525081526020016040518060400160405280600581526020017f4c7563617300000000000000000000000000000000000000000000000000000081525081526020016040518060400160405280600981526020017f436861726c6f747465000000000000000000000000000000000000000000000081525081526020016040518060400160405280600581526020017f4d61736f6e00000000000000000000000000000000000000000000000000000081525081526020016040518060400160405280600881526020017f49736162656c6c6100000000000000000000000000000000000000000000000081525081526020016040518060400160405280600481526020017f4c6576690000000000000000000000000000000000000000000000000000000081525081526020016040518060400160405280600381526020017f4d6961000000000000000000000000000000000000000000000000000000000081525081526020016040518060400160405280600581526020017f417368657200000000000000000000000000000000000000000000000000000081525081526020016040518060400160405280600481526020017f4c756e610000000000000000000000000000000000000000000000000000000081525081526020016040518060400160405280600581526020017f4a616d657300000000000000000000000000000000000000000000000000000081525081526020016040518060400160405280600681526020017f486172706572000000000000000000000000000000000000000000000000000081525081526020016040518060400160405280600581526020017f4d6174656f00000000000000000000000000000000000000000000000000000081525081526020016040518060400160405280600681526020017f4769616e6e61000000000000000000000000000000000000000000000000000081525081526020016040518060400160405280600381526020017f4c656f000000000000000000000000000000000000000000000000000000000081525081526020016040518060400160405280600681526020017f4576656c796e000000000000000000000000000000000000000000000000000081525081526020016040518060400160405280600581526020017f457468616e00000000000000000000000000000000000000000000000000000081525081526020016040518060400160405280600481526020017f417269610000000000000000000000000000000000000000000000000000000081525081526020016040518060400160405280600881526020017f42656e6a616d696e00000000000000000000000000000000000000000000000081525081526020016040518060400160405280600481526020017f456c6c610000000000000000000000000000000000000000000000000000000081525081526020016040518060400160405280600581526020017f4c6f67616e00000000000000000000000000000000000000000000000000000081525081526020016040518060400160405280600581526020017f456c6c696500000000000000000000000000000000000000000000000000000081525081526020016040518060400160405280600581526020017f416964656e00000000000000000000000000000000000000000000000000000081525081526020016040518060400160405280600481526020017f4d696c610000000000000000000000000000000000000000000000000000000081525081526020016040518060400160405280600481526020017f4a61636b0000000000000000000000000000000000000000000000000000000081525081526020016040518060400160405280600581526020017f4c61796c6100000000000000000000000000000000000000000000000000000081525081526020016040518060400160405280600781526020017f47726179736f6e0000000000000000000000000000000000000000000000000081525081526020016040518060400160405280600681526020017f5279696c6565000000000000000000000000000000000000000000000000000081525081526020016040518060400160405280600681526020017f4c657269656c000000000000000000000000000000000000000000000000000081525081526020016040518060400160405280600681526020017f43616d696c61000000000000000000000000000000000000000000000000000081525081526020016040518060400160405280600781526020017f4a61636b736f6e0000000000000000000000000000000000000000000000000081525081526020016040518060400160405280600581526020017f417665727900000000000000000000000000000000000000000000000000000081525081526020016040518060400160405280600581526020017f577961747400000000000000000000000000000000000000000000000000000081525081526020016040518060400160405280600481526020017f4c696c790000000000000000000000000000000000000000000000000000000081525081526020016040518060400160405280600581526020017f48656e727900000000000000000000000000000000000000000000000000000081525081526020016040518060400160405280600881526020017f536361726c65747400000000000000000000000000000000000000000000000081525081526020016040518060400160405280600681526020017f436172746572000000000000000000000000000000000000000000000000000081525081526020016040518060400160405280600581526020017f536f66696100000000000000000000000000000000000000000000000000000081525081526020016040518060400160405280600981526020017f53656261737469616e000000000000000000000000000000000000000000000081525081526020016040518060400160405280600481526020017f4e6f76610000000000000000000000000000000000000000000000000000000081525081526020016040518060400160405280600781526020017f57696c6c69616d0000000000000000000000000000000000000000000000000081525081526020016040518060400160405280600681526020017f4175726f7261000000000000000000000000000000000000000000000000000081525081526020016040518060400160405280600681526020017f44616e69656c000000000000000000000000000000000000000000000000000081525081526020016040518060400160405280600581526020017f43686c6f6500000000000000000000000000000000000000000000000000000081525081526020016040518060400160405280600481526020017f4f77656e0000000000000000000000000000000000000000000000000000000081525081526020016040518060400160405280600581526020017f52696c657900000000000000000000000000000000000000000000000000000081525081526020016040518060400160405280600681526020017f4a756c69616e000000000000000000000000000000000000000000000000000081525081526020016040518060400160405280600781526020017f4162696761696c0000000000000000000000000000000000000000000000000081525081526020016040518060400160405280600981526020017f416c6578616e646572000000000000000000000000000000000000000000000081525081526020016040518060400160405280600581526020017f48617a656c00000000000000000000000000000000000000000000000000000081525081526020016040518060400160405280600781526020017f4d69636861656c0000000000000000000000000000000000000000000000000081525081526020016040518060400160405280600481526020017f4e6f72610000000000000000000000000000000000000000000000000000000081525081526020016040518060400160405280600681526020017f487564736f6e000000000000000000000000000000000000000000000000000081525081526020016040518060400160405280600481526020017f5a6f65790000000000000000000000000000000000000000000000000000000081525081526020016040518060400160405280600481526020017f457a72610000000000000000000000000000000000000000000000000000000081525081526020016040518060400160405280600481526020017f49736c610000000000000000000000000000000000000000000000000000000081525081526020016040518060400160405280600881526020017f4d7568616d6d616400000000000000000000000000000000000000000000000081525081526020016040518060400160405280600581526020017f456c656e6100000000000000000000000000000000000000000000000000000081525081526020016040518060400160405280600481526020017f4c756b650000000000000000000000000000000000000000000000000000000081525081526020016040518060400160405280600881526020017f50656e656c6f706500000000000000000000000000000000000000000000000081525081526020016040518060400160405280600581526020017f4a61636f6200000000000000000000000000000000000000000000000000000081525081526020016040518060400160405280600781526020017f456c65616e6f720000000000000000000000000000000000000000000000000081525081526020016040518060400160405280600781526020017f4c696e636f6c6e0000000000000000000000000000000000000000000000000081525081526020016040518060400160405280600981526020017f456c697a6162657468000000000000000000000000000000000000000000000081525081526020016040518060400160405280600681526020017f53616d75656c000000000000000000000000000000000000000000000000000081525081526020016040518060400160405280600781526020017f4d616469736f6e0000000000000000000000000000000000000000000000000081525081526020016040518060400160405280600781526020017f4761627269656c0000000000000000000000000000000000000000000000000081525081526020016040518060400160405280600681526020017f456d696c6961000000000000000000000000000000000000000000000000000081525081526020016040518060400160405280600681526020017f4a617964656e000000000000000000000000000000000000000000000000000081525081526020016040518060400160405280600681526020017f57696c6c6f77000000000000000000000000000000000000000000000000000081525081526020016040518060400160405280600681526020017f4a6f73696168000000000000000000000000000000000000000000000000000081525081526020016040518060400160405280600581526020017f456d696c7900000000000000000000000000000000000000000000000000000081525081526020016040518060400160405280600881526020017f4d6176657269636b00000000000000000000000000000000000000000000000081525081526020016040518060400160405280600681526020017f456c69616e61000000000000000000000000000000000000000000000000000081525081526020016040518060400160405280600581526020017f446176696400000000000000000000000000000000000000000000000000000081525081526020016040518060400160405280600681526020017f56696f6c6574000000000000000000000000000000000000000000000000000081525081526020016040518060400160405280600481526020017f4c7563610000000000000000000000000000000000000000000000000000000081525081526020016040518060400160405280600681526020017f5374656c6c61000000000000000000000000000000000000000000000000000081525081526020016040518060400160405280600581526020017f456c69617300000000000000000000000000000000000000000000000000000081525081526020016040518060400160405280600781526020017f506169736c65790000000000000000000000000000000000000000000000000081525081526020016040518060400160405280600581526020017f4a61786f6e00000000000000000000000000000000000000000000000000000081525081526020016040518060400160405280600481526020017f4d6179610000000000000000000000000000000000000000000000000000000081525081526020016040518060400160405280600381526020017f4b6169000000000000000000000000000000000000000000000000000000000081525081526020016040518060400160405280600781526020017f41646469736f6e0000000000000000000000000000000000000000000000000081525081526020016040518060400160405280600381526020017f456c69000000000000000000000000000000000000000000000000000000000081525081526020016040518060400160405280600681526020017f457665726c79000000000000000000000000000000000000000000000000000081525081526020016040518060400160405280600481526020017f4a6f686e0000000000000000000000000000000000000000000000000000000081525081526020016040518060400160405280600581526020017f477261636500000000000000000000000000000000000000000000000000000081525081526020016040518060400160405280600681526020017f497361696168000000000000000000000000000000000000000000000000000081525081526020016040518060400160405280600381526020017f497679000000000000000000000000000000000000000000000000000000000081525081526020016040518060400160405280600781526020017f416e74686f6e790000000000000000000000000000000000000000000000000081525081526020016040518060400160405280600581526020017f4c6974746500000000000000000000000000000000000000000000000000000081525081526020016040518060400160405280600781526020017f4d61747468657700000000000000000000000000000000000000000000000000815250815250601590606462005b799291906200a565565b50604051806125e001604052806040518060400160405280600581526020017f536d69746800000000000000000000000000000000000000000000000000000081525081526020016040518060400160405280600781526020017f4a6f686e736f6e0000000000000000000000000000000000000000000000000081525081526020016040518060400160405280600881526020017f57696c6c69616d7300000000000000000000000000000000000000000000000081525081526020016040518060400160405280600581526020017f42726f776e00000000000000000000000000000000000000000000000000000081525081526020016040518060400160405280600581526020017f4a6f6e657300000000000000000000000000000000000000000000000000000081525081526020016040518060400160405280600681526020017f4d696c6c6572000000000000000000000000000000000000000000000000000081525081526020016040518060400160405280600581526020017f446176697300000000000000000000000000000000000000000000000000000081525081526020016040518060400160405280600681526020017f476172636961000000000000000000000000000000000000000000000000000081525081526020016040518060400160405280600981526020017f526f6472696775657a000000000000000000000000000000000000000000000081525081526020016040518060400160405280600681526020017f57696c736f6e000000000000000000000000000000000000000000000000000081525081526020016040518060400160405280600881526020017f4d617274696e657a00000000000000000000000000000000000000000000000081525081526020016040518060400160405280600881526020017f416e646572736f6e00000000000000000000000000000000000000000000000081525081526020016040518060400160405280600681526020017f5461796c6f72000000000000000000000000000000000000000000000000000081525081526020016040518060400160405280600681526020017f54686f6d6173000000000000000000000000000000000000000000000000000081525081526020016040518060400160405280600981526020017f4865726e616e64657a000000000000000000000000000000000000000000000081525081526020016040518060400160405280600581526020017f4d6f6f726500000000000000000000000000000000000000000000000000000081525081526020016040518060400160405280600681526020017f4d617274696e000000000000000000000000000000000000000000000000000081525081526020016040518060400160405280600781526020017f4a61636b736f6e0000000000000000000000000000000000000000000000000081525081526020016040518060400160405280600881526020017f54686f6d70736f6e00000000000000000000000000000000000000000000000081525081526020016040518060400160405280600581526020017f576869746500000000000000000000000000000000000000000000000000000081525081526020016040518060400160405280600581526020017f4c6f70657a00000000000000000000000000000000000000000000000000000081525081526020016040518060400160405280600381526020017f4c6565000000000000000000000000000000000000000000000000000000000081525081526020016040518060400160405280600881526020017f476f6e7a616c657a00000000000000000000000000000000000000000000000081525081526020016040518060400160405280600681526020017f486172726973000000000000000000000000000000000000000000000000000081525081526020016040518060400160405280600581526020017f436c61726b00000000000000000000000000000000000000000000000000000081525081526020016040518060400160405280600581526020017f4c6577697300000000000000000000000000000000000000000000000000000081525081526020016040518060400160405280600881526020017f526f62696e736f6e00000000000000000000000000000000000000000000000081525081526020016040518060400160405280600681526020017f57616c6b6572000000000000000000000000000000000000000000000000000081525081526020016040518060400160405280600581526020017f506572657a00000000000000000000000000000000000000000000000000000081525081526020016040518060400160405280600481526020017f48616c6c0000000000000000000000000000000000000000000000000000000081525081526020016040518060400160405280600581526020017f596f756e6700000000000000000000000000000000000000000000000000000081525081526020016040518060400160405280600581526020017f416c6c656e00000000000000000000000000000000000000000000000000000081525081526020016040518060400160405280600781526020017f53616e6368657a0000000000000000000000000000000000000000000000000081525081526020016040518060400160405280600681526020017f577269676874000000000000000000000000000000000000000000000000000081525081526020016040518060400160405280600481526020017f4b696e670000000000000000000000000000000000000000000000000000000081525081526020016040518060400160405280600581526020017f53636f747400000000000000000000000000000000000000000000000000000081525081526020016040518060400160405280600581526020017f477265656e00000000000000000000000000000000000000000000000000000081525081526020016040518060400160405280600581526020017f42616b657200000000000000000000000000000000000000000000000000000081525081526020016040518060400160405280600581526020017f4164616d7300000000000000000000000000000000000000000000000000000081525081526020016040518060400160405280600681526020017f4e656c736f6e000000000000000000000000000000000000000000000000000081525081526020016040518060400160405280600481526020017f48696c6c0000000000000000000000000000000000000000000000000000000081525081526020016040518060400160405280600781526020017f52616d6972657a0000000000000000000000000000000000000000000000000081525081526020016040518060400160405280600881526020017f43616d7062656c6c00000000000000000000000000000000000000000000000081525081526020016040518060400160405280600881526020017f4d69746368656c6c00000000000000000000000000000000000000000000000081525081526020016040518060400160405280600781526020017f526f62657274730000000000000000000000000000000000000000000000000081525081526020016040518060400160405280600681526020017f436172746572000000000000000000000000000000000000000000000000000081525081526020016040518060400160405280600881526020017f5068696c6c69707300000000000000000000000000000000000000000000000081525081526020016040518060400160405280600581526020017f4576616e7300000000000000000000000000000000000000000000000000000081525081526020016040518060400160405280600681526020017f5475726e6572000000000000000000000000000000000000000000000000000081525081526020016040518060400160405280600681526020017f546f72726573000000000000000000000000000000000000000000000000000081525081526020016040518060400160405280600681526020017f5061726b6572000000000000000000000000000000000000000000000000000081525081526020016040518060400160405280600781526020017f436f6c6c696e730000000000000000000000000000000000000000000000000081525081526020016040518060400160405280600781526020017f456477617264730000000000000000000000000000000000000000000000000081525081526020016040518060400160405280600781526020017f537465776172740000000000000000000000000000000000000000000000000081525081526020016040518060400160405280600681526020017f466c6f726573000000000000000000000000000000000000000000000000000081525081526020016040518060400160405280600681526020017f4d6f72726973000000000000000000000000000000000000000000000000000081525081526020016040518060400160405280600681526020017f4e677579656e000000000000000000000000000000000000000000000000000081525081526020016040518060400160405280600681526020017f4d7572706879000000000000000000000000000000000000000000000000000081525081526020016040518060400160405280600681526020017f526976657261000000000000000000000000000000000000000000000000000081525081526020016040518060400160405280600481526020017f436f6f6b0000000000000000000000000000000000000000000000000000000081525081526020016040518060400160405280600681526020017f526f67657273000000000000000000000000000000000000000000000000000081525081526020016040518060400160405280600681526020017f4d6f7267616e000000000000000000000000000000000000000000000000000081525081526020016040518060400160405280600881526020017f5065746572736f6e00000000000000000000000000000000000000000000000081525081526020016040518060400160405280600681526020017f436f6f706572000000000000000000000000000000000000000000000000000081525081526020016040518060400160405280600481526020017f526565640000000000000000000000000000000000000000000000000000000081525081526020016040518060400160405280600681526020017f4261696c6579000000000000000000000000000000000000000000000000000081525081526020016040518060400160405280600481526020017f42656c6c0000000000000000000000000000000000000000000000000000000081525081526020016040518060400160405280600581526020017f476f6d657a00000000000000000000000000000000000000000000000000000081525081526020016040518060400160405280600581526020017f4b656c6c7900000000000000000000000000000000000000000000000000000081525081526020016040518060400160405280600681526020017f486f77617264000000000000000000000000000000000000000000000000000081525081526020016040518060400160405280600481526020017f576172640000000000000000000000000000000000000000000000000000000081525081526020016040518060400160405280600381526020017f436f78000000000000000000000000000000000000000000000000000000000081525081526020016040518060400160405280600481526020017f4469617a0000000000000000000000000000000000000000000000000000000081525081526020016040518060400160405280600a81526020017f52696368617264736f6e0000000000000000000000000000000000000000000081525081526020016040518060400160405280600481526020017f576f6f640000000000000000000000000000000000000000000000000000000081525081526020016040518060400160405280600681526020017f576174736f6e000000000000000000000000000000000000000000000000000081525081526020016040518060400160405280600681526020017f42726f6f6b73000000000000000000000000000000000000000000000000000081525081526020016040518060400160405280600781526020017f42656e6e6574740000000000000000000000000000000000000000000000000081525081526020016040518060400160405280600481526020017f477261790000000000000000000000000000000000000000000000000000000081525081526020016040518060400160405280600581526020017f4a616d657300000000000000000000000000000000000000000000000000000081525081526020016040518060400160405280600581526020017f526579657300000000000000000000000000000000000000000000000000000081525081526020016040518060400160405280600481526020017f4372757a0000000000000000000000000000000000000000000000000000000081525081526020016040518060400160405280600681526020017f487567686573000000000000000000000000000000000000000000000000000081525081526020016040518060400160405280600581526020017f507269636500000000000000000000000000000000000000000000000000000081525081526020016040518060400160405280600581526020017f4d7965727300000000000000000000000000000000000000000000000000000081525081526020016040518060400160405280600481526020017f4c6f6e670000000000000000000000000000000000000000000000000000000081525081526020016040518060400160405280600681526020017f466f73746572000000000000000000000000000000000000000000000000000081525081526020016040518060400160405280600781526020017f53616e646572730000000000000000000000000000000000000000000000000081525081526020016040518060400160405280600481526020017f526f73730000000000000000000000000000000000000000000000000000000081525081526020016040518060400160405280600781526020017f4d6f72616c65730000000000000000000000000000000000000000000000000081525081526020016040518060400160405280600681526020017f506f77656c6c000000000000000000000000000000000000000000000000000081525081526020016040518060400160405280600881526020017f53756c6c6976616e00000000000000000000000000000000000000000000000081525081526020016040518060400160405280600781526020017f52757373656c6c0000000000000000000000000000000000000000000000000081525081526020016040518060400160405280600581526020017f4f7274697a00000000000000000000000000000000000000000000000000000081525081526020016040518060400160405280600781526020017f4a656e6b696e730000000000000000000000000000000000000000000000000081525081526020016040518060400160405280600981526020017f47757469657272657a000000000000000000000000000000000000000000000081525081526020016040518060400160405280600581526020017f506572727900000000000000000000000000000000000000000000000000000081525081526020016040518060400160405280600681526020017f4275746c6572000000000000000000000000000000000000000000000000000081525081526020016040518060400160405280600681526020017f4261726e6573000000000000000000000000000000000000000000000000000081525081526020016040518060400160405280600681526020017f466973686572000000000000000000000000000000000000000000000000000081525081526020016040518060400160405280600981526020017f48656e646572736f6e000000000000000000000000000000000000000000000081525081526020016040518060400160405280600781526020017f436f6c656d616e0000000000000000000000000000000000000000000000000081525081526020016040518060400160405280600781526020017f53696d6d6f6e730000000000000000000000000000000000000000000000000081525081526020016040518060400160405280600981526020017f506174746572736f6e000000000000000000000000000000000000000000000081525081526020016040518060400160405280600681526020017f4a6f7264616e000000000000000000000000000000000000000000000000000081525081526020016040518060400160405280600881526020017f5265796e6f6c647300000000000000000000000000000000000000000000000081525081526020016040518060400160405280600881526020017f48616d696c746f6e00000000000000000000000000000000000000000000000081525081526020016040518060400160405280600681526020017f47726168616d000000000000000000000000000000000000000000000000000081525081526020016040518060400160405280600381526020017f4b696d000000000000000000000000000000000000000000000000000000000081525081526020016040518060400160405280600881526020017f476f6e7a616c657300000000000000000000000000000000000000000000000081525081526020016040518060400160405280600981526020017f416c6578616e646572000000000000000000000000000000000000000000000081525081526020016040518060400160405280600581526020017f52616d6f7300000000000000000000000000000000000000000000000000000081525081526020016040518060400160405280600781526020017f57616c6c6163650000000000000000000000000000000000000000000000000081525081526020016040518060400160405280600781526020017f4772696666696e0000000000000000000000000000000000000000000000000081525081526020016040518060400160405280600481526020017f576573740000000000000000000000000000000000000000000000000000000081525081526020016040518060400160405280600481526020017f436f6c650000000000000000000000000000000000000000000000000000000081525081526020016040518060400160405280600581526020017f486179657300000000000000000000000000000000000000000000000000000081525081526020016040518060400160405280600681526020017f43686176657a000000000000000000000000000000000000000000000000000081525081526020016040518060400160405280600681526020017f476962736f6e000000000000000000000000000000000000000000000000000081525081526020016040518060400160405280600681526020017f427279616e74000000000000000000000000000000000000000000000000000081525081526020016040518060400160405280600581526020017f456c6c697300000000000000000000000000000000000000000000000000000081525081526020016040518060400160405280600781526020017f53746576656e730000000000000000000000000000000000000000000000000081525081526020016040518060400160405280600681526020017f4d7572726179000000000000000000000000000000000000000000000000000081525081526020016040518060400160405280600481526020017f466f72640000000000000000000000000000000000000000000000000000000081525081526020016040518060400160405280600881526020017f4d61727368616c6c00000000000000000000000000000000000000000000000081525081526020016040518060400160405280600581526020017f4f77656e7300000000000000000000000000000000000000000000000000000081525081526020016040518060400160405280600881526020017f4d63646f6e616c6400000000000000000000000000000000000000000000000081525081526020016040518060400160405280600881526020017f4861727269736f6e00000000000000000000000000000000000000000000000081525081526020016040518060400160405280600481526020017f5275697a0000000000000000000000000000000000000000000000000000000081525081526020016040518060400160405280600781526020017f4b656e6e6564790000000000000000000000000000000000000000000000000081525081526020016040518060400160405280600581526020017f57656c6c7300000000000000000000000000000000000000000000000000000081525081526020016040518060400160405280600781526020017f416c766172657a0000000000000000000000000000000000000000000000000081525081526020016040518060400160405280600581526020017f576f6f647300000000000000000000000000000000000000000000000000000081525081526020016040518060400160405280600781526020017f4d656e646f7a610000000000000000000000000000000000000000000000000081525081526020016040518060400160405280600881526020017f43617374696c6c6f00000000000000000000000000000000000000000000000081525081526020016040518060400160405280600581526020017f4f6c736f6e00000000000000000000000000000000000000000000000000000081525081526020016040518060400160405280600481526020017f576562620000000000000000000000000000000000000000000000000000000081525081526020016040518060400160405280600a81526020017f57617368696e67746f6e0000000000000000000000000000000000000000000081525081526020016040518060400160405280600681526020017f5475636b6572000000000000000000000000000000000000000000000000000081525081526020016040518060400160405280600781526020017f467265656d616e0000000000000000000000000000000000000000000000000081525081526020016040518060400160405280600581526020017f4275726e7300000000000000000000000000000000000000000000000000000081525081526020016040518060400160405280600581526020017f48656e727900000000000000000000000000000000000000000000000000000081525081526020016040518060400160405280600781526020017f5661737175657a0000000000000000000000000000000000000000000000000081525081526020016040518060400160405280600681526020017f536e79646572000000000000000000000000000000000000000000000000000081525081526020016040518060400160405280600781526020017f53696d70736f6e0000000000000000000000000000000000000000000000000081525081526020016040518060400160405280600881526020017f43726177666f726400000000000000000000000000000000000000000000000081525081526020016040518060400160405280600781526020017f4a696d656e657a0000000000000000000000000000000000000000000000000081525081526020016040518060400160405280600681526020017f506f72746572000000000000000000000000000000000000000000000000000081525081526020016040518060400160405280600581526020017f4d61736f6e00000000000000000000000000000000000000000000000000000081525081526020016040518060400160405280600481526020017f536861770000000000000000000000000000000000000000000000000000000081525081526020016040518060400160405280600681526020017f476f72646f6e000000000000000000000000000000000000000000000000000081525081526020016040518060400160405280600681526020017f5761676e6572000000000000000000000000000000000000000000000000000081525081526020016040518060400160405280600681526020017f48756e746572000000000000000000000000000000000000000000000000000081525081526020016040518060400160405280600681526020017f526f6d65726f000000000000000000000000000000000000000000000000000081525081526020016040518060400160405280600581526020017f4869636b7300000000000000000000000000000000000000000000000000000081525081526020016040518060400160405280600581526020017f4469786f6e00000000000000000000000000000000000000000000000000000081525081526020016040518060400160405280600481526020017f48756e740000000000000000000000000000000000000000000000000000000081525081526020016040518060400160405280600681526020017f50616c6d6572000000000000000000000000000000000000000000000000000081525081526020016040518060400160405280600981526020017f526f62657274736f6e000000000000000000000000000000000000000000000081525081526020016040518060400160405280600581526020017f426c61636b00000000000000000000000000000000000000000000000000000081525081526020016040518060400160405280600681526020017f486f6c6d6573000000000000000000000000000000000000000000000000000081525081526020016040518060400160405280600581526020017f53746f6e6500000000000000000000000000000000000000000000000000000081525081526020016040518060400160405280600581526020017f4d6579657200000000000000000000000000000000000000000000000000000081525081526020016040518060400160405280600481526020017f426f79640000000000000000000000000000000000000000000000000000000081525081526020016040518060400160405280600581526020017f4d696c6c7300000000000000000000000000000000000000000000000000000081525081526020016040518060400160405280600681526020017f57617272656e000000000000000000000000000000000000000000000000000081525081526020016040518060400160405280600381526020017f466f78000000000000000000000000000000000000000000000000000000000081525081526020016040518060400160405280600481526020017f526f73650000000000000000000000000000000000000000000000000000000081525081526020016040518060400160405280600481526020017f526963650000000000000000000000000000000000000000000000000000000081525081526020016040518060400160405280600681526020017f4d6f72656e6f000000000000000000000000000000000000000000000000000081525081526020016040518060400160405280600781526020017f5363686d6964740000000000000000000000000000000000000000000000000081525081526020016040518060400160405280600581526020017f506174656c00000000000000000000000000000000000000000000000000000081525081526020016040518060400160405280600881526020017f4665726775736f6e00000000000000000000000000000000000000000000000081525081526020016040518060400160405280600781526020017f4e6963686f6c730000000000000000000000000000000000000000000000000081525081526020016040518060400160405280600781526020017f486572726572610000000000000000000000000000000000000000000000000081525081526020016040518060400160405280600681526020017f4d6564696e61000000000000000000000000000000000000000000000000000081525081526020016040518060400160405280600481526020017f5279616e0000000000000000000000000000000000000000000000000000000081525081526020016040518060400160405280600981526020017f4665726e616e64657a000000000000000000000000000000000000000000000081525081526020016040518060400160405280600681526020017f576561766572000000000000000000000000000000000000000000000000000081525081526020016040518060400160405280600781526020017f44616e69656c730000000000000000000000000000000000000000000000000081525081526020016040518060400160405280600881526020017f5374657068656e7300000000000000000000000000000000000000000000000081525081526020016040518060400160405280600781526020017f476172646e65720000000000000000000000000000000000000000000000000081525081526020016040518060400160405280600581526020017f5061796e6500000000000000000000000000000000000000000000000000000081525081526020016040518060400160405280600681526020017f4b656c6c6579000000000000000000000000000000000000000000000000000081525081526020016040518060400160405280600481526020017f44756e6e0000000000000000000000000000000000000000000000000000000081525081526020016040518060400160405280600681526020017f506965726365000000000000000000000000000000000000000000000000000081525081526020016040518060400160405280600681526020017f41726e6f6c64000000000000000000000000000000000000000000000000000081525081526020016040518060400160405280600481526020017f5472616e0000000000000000000000000000000000000000000000000000000081525081526020016040518060400160405280600781526020017f5370656e6365720000000000000000000000000000000000000000000000000081525081526020016040518060400160405280600681526020017f506574657273000000000000000000000000000000000000000000000000000081525081526020016040518060400160405280600781526020017f4861776b696e730000000000000000000000000000000000000000000000000081525081526020016040518060400160405280600581526020017f4772616e7400000000000000000000000000000000000000000000000000000081525081526020016040518060400160405280600681526020017f48616e73656e000000000000000000000000000000000000000000000000000081525081526020016040518060400160405280600681526020017f43617374726f000000000000000000000000000000000000000000000000000081525081526020016040518060400160405280600781526020017f486f66666d616e0000000000000000000000000000000000000000000000000081525081526020016040518060400160405280600481526020017f486172740000000000000000000000000000000000000000000000000000000081525081526020016040518060400160405280600781526020017f456c6c696f74740000000000000000000000000000000000000000000000000081525081526020016040518060400160405280600a81526020017f43756e6e696e6768616d0000000000000000000000000000000000000000000081525081526020016040518060400160405280600681526020017f4b6e69676874000000000000000000000000000000000000000000000000000081525081526020016040518060400160405280600781526020017f427261646c65790000000000000000000000000000000000000000000000000081525081526020016040518060400160405280600781526020017f436172726f6c6c0000000000000000000000000000000000000000000000000081525081526020016040518060400160405280600681526020017f487564736f6e000000000000000000000000000000000000000000000000000081525081526020016040518060400160405280600681526020017f44756e63616e000000000000000000000000000000000000000000000000000081525081526020016040518060400160405280600981526020017f41726d7374726f6e67000000000000000000000000000000000000000000000081525081526020016040518060400160405280600581526020017f426572727900000000000000000000000000000000000000000000000000000081525081526020016040518060400160405280600781526020017f416e64726577730000000000000000000000000000000000000000000000000081525081526020016040518060400160405280600881526020017f4a6f686e73746f6e00000000000000000000000000000000000000000000000081525081526020016040518060400160405280600381526020017f526179000000000000000000000000000000000000000000000000000000000081525081526020016040518060400160405280600481526020017f4c616e650000000000000000000000000000000000000000000000000000000081525081526020016040518060400160405280600581526020017f52696c657900000000000000000000000000000000000000000000000000000081525081526020016040518060400160405280600981526020017f43617270656e746572000000000000000000000000000000000000000000000081525081526020016040518060400160405280600781526020017f5065726b696e730000000000000000000000000000000000000000000000000081525081526020016040518060400160405280600781526020017f416775696c61720000000000000000000000000000000000000000000000000081525081526020016040518060400160405280600581526020017f53696c766100000000000000000000000000000000000000000000000000000081525081526020016040518060400160405280600881526020017f526963686172647300000000000000000000000000000000000000000000000081525081526020016040518060400160405280600681526020017f57696c6c6973000000000000000000000000000000000000000000000000000081525081526020016040518060400160405280600881526020017f4d6174746865777300000000000000000000000000000000000000000000000081525081526020016040518060400160405280600781526020017f436861706d616e0000000000000000000000000000000000000000000000000081525081526020016040518060400160405280600881526020017f4c617772656e636500000000000000000000000000000000000000000000000081525081526020016040518060400160405280600581526020017f4761727a6100000000000000000000000000000000000000000000000000000081525081526020016040518060400160405280600681526020017f566172676173000000000000000000000000000000000000000000000000000081525081526020016040518060400160405280600781526020017f5761746b696e730000000000000000000000000000000000000000000000000081525081526020016040518060400160405280600781526020017f576865656c65720000000000000000000000000000000000000000000000000081525081526020016040518060400160405280600681526020017f4c6172736f6e000000000000000000000000000000000000000000000000000081525081526020016040518060400160405280600781526020017f4361726c736f6e0000000000000000000000000000000000000000000000000081525081526020016040518060400160405280600681526020017f486172706572000000000000000000000000000000000000000000000000000081525081526020016040518060400160405280600681526020017f47656f726765000000000000000000000000000000000000000000000000000081525081526020016040518060400160405280600681526020017f477265656e65000000000000000000000000000000000000000000000000000081525081526020016040518060400160405280600581526020017f4275726b6500000000000000000000000000000000000000000000000000000081525081526020016040518060400160405280600681526020017f47757a6d616e000000000000000000000000000000000000000000000000000081525081526020016040518060400160405280600881526020017f4d6f727269736f6e00000000000000000000000000000000000000000000000081525081526020016040518060400160405280600581526020017f4d756e6f7a00000000000000000000000000000000000000000000000000000081525081526020016040518060400160405280600681526020017f4a61636f6273000000000000000000000000000000000000000000000000000081525081526020016040518060400160405280600681526020017f4f627269656e000000000000000000000000000000000000000000000000000081525081526020016040518060400160405280600681526020017f4c6177736f6e000000000000000000000000000000000000000000000000000081525081526020016040518060400160405280600881526020017f4672616e6b6c696e00000000000000000000000000000000000000000000000081525081526020016040518060400160405280600581526020017f4c796e636800000000000000000000000000000000000000000000000000000081525081526020016040518060400160405280600681526020017f426973686f70000000000000000000000000000000000000000000000000000081525081526020016040518060400160405280600481526020017f436172720000000000000000000000000000000000000000000000000000000081525081526020016040518060400160405280600781526020017f53616c617a61720000000000000000000000000000000000000000000000000081525081526020016040518060400160405280600681526020017f41757374696e000000000000000000000000000000000000000000000000000081525081526020016040518060400160405280600681526020017f4d656e64657a000000000000000000000000000000000000000000000000000081525081526020016040518060400160405280600781526020017f47696c626572740000000000000000000000000000000000000000000000000081525081526020016040518060400160405280600681526020017f4a656e73656e000000000000000000000000000000000000000000000000000081525081526020016040518060400160405280600a81526020017f57696c6c69616d736f6e0000000000000000000000000000000000000000000081525081526020016040518060400160405280600a81526020017f4d6f6e74676f6d6572790000000000000000000000000000000000000000000081525081526020016040518060400160405280600681526020017f486172766579000000000000000000000000000000000000000000000000000081525081526020016040518060400160405280600681526020017f4f6c69766572000000000000000000000000000000000000000000000000000081525081526020016040518060400160405280600681526020017f486f77656c6c000000000000000000000000000000000000000000000000000081525081526020016040518060400160405280600481526020017f4465616e0000000000000000000000000000000000000000000000000000000081525081526020016040518060400160405280600681526020017f48616e736f6e000000000000000000000000000000000000000000000000000081525081526020016040518060400160405280600581526020017f576562657200000000000000000000000000000000000000000000000000000081525081526020016040518060400160405280600781526020017f476172726574740000000000000000000000000000000000000000000000000081525081526020016040518060400160405280600481526020017f53696d730000000000000000000000000000000000000000000000000000000081525081526020016040518060400160405280600681526020017f427572746f6e000000000000000000000000000000000000000000000000000081525081526020016040518060400160405280600681526020017f46756c6c6572000000000000000000000000000000000000000000000000000081525081526020016040518060400160405280600481526020017f536f746f0000000000000000000000000000000000000000000000000000000081525081526020016040518060400160405280600581526020017f4d63636f7900000000000000000000000000000000000000000000000000000081525081526020016040518060400160405280600581526020017f57656c636800000000000000000000000000000000000000000000000000000081525081526020016040518060400160405280600481526020017f4368656e0000000000000000000000000000000000000000000000000000000081525081526020016040518060400160405280600781526020017f536368756c747a0000000000000000000000000000000000000000000000000081525081526020016040518060400160405280600781526020017f57616c746572730000000000000000000000000000000000000000000000000081525081526020016040518060400160405280600481526020017f526569640000000000000000000000000000000000000000000000000000000081525081526020016040518060400160405280600681526020017f4669656c6473000000000000000000000000000000000000000000000000000081525081526020016040518060400160405280600581526020017f57616c736800000000000000000000000000000000000000000000000000000081525081526020016040518060400160405280600681526020017f4c6974746c65000000000000000000000000000000000000000000000000000081525081526020016040518060400160405280600681526020017f466f776c6572000000000000000000000000000000000000000000000000000081525081526020016040518060400160405280600681526020017f426f776d616e000000000000000000000000000000000000000000000000000081525081526020016040518060400160405280600881526020017f4461766964736f6e00000000000000000000000000000000000000000000000081525081526020016040518060400160405280600381526020017f4d6179000000000000000000000000000000000000000000000000000000000081525081526020016040518060400160405280600381526020017f446179000000000000000000000000000000000000000000000000000000000081525081526020016040518060400160405280600981526020017f5363686e6569646572000000000000000000000000000000000000000000000081525081526020016040518060400160405280600681526020017f4e65776d616e000000000000000000000000000000000000000000000000000081525081526020016040518060400160405280600681526020017f427265776572000000000000000000000000000000000000000000000000000081525081526020016040518060400160405280600581526020017f4c7563617300000000000000000000000000000000000000000000000000000081525081526020016040518060400160405280600781526020017f486f6c6c616e640000000000000000000000000000000000000000000000000081525081526020016040518060400160405280600481526020017f576f6e670000000000000000000000000000000000000000000000000000000081525081526020016040518060400160405280600581526020017f42616e6b7300000000000000000000000000000000000000000000000000000081525081526020016040518060400160405280600681526020017f53616e746f73000000000000000000000000000000000000000000000000000081525081526020016040518060400160405280600681526020017f437572746973000000000000000000000000000000000000000000000000000081525081526020016040518060400160405280600781526020017f50656172736f6e0000000000000000000000000000000000000000000000000081525081526020016040518060400160405280600781526020017f44656c6761646f0000000000000000000000000000000000000000000000000081525081526020016040518060400160405280600681526020017f56616c64657a000000000000000000000000000000000000000000000000000081525081526020016040518060400160405280600481526020017f50656e610000000000000000000000000000000000000000000000000000000081525081526020016040518060400160405280600481526020017f52696f730000000000000000000000000000000000000000000000000000000081525081526020016040518060400160405280600781526020017f446f75676c61730000000000000000000000000000000000000000000000000081525081526020016040518060400160405280600881526020017f53616e646f76616c00000000000000000000000000000000000000000000000081525081526020016040518060400160405280600781526020017f426172726574740000000000000000000000000000000000000000000000000081525081526020016040518060400160405280600781526020017f486f706b696e730000000000000000000000000000000000000000000000000081525081526020016040518060400160405280600681526020017f4b656c6c6572000000000000000000000000000000000000000000000000000081525081526020016040518060400160405280600881526020017f477565727265726f00000000000000000000000000000000000000000000000081525081526020016040518060400160405280600781526020017f5374616e6c65790000000000000000000000000000000000000000000000000081525081526020016040518060400160405280600581526020017f426174657300000000000000000000000000000000000000000000000000000081525081526020016040518060400160405280600881526020017f416c76617261646f00000000000000000000000000000000000000000000000081525081526020016040518060400160405280600481526020017f4265636b0000000000000000000000000000000000000000000000000000000081525081526020016040518060400160405280600681526020017f4f7274656761000000000000000000000000000000000000000000000000000081525081526020016040518060400160405280600481526020017f576164650000000000000000000000000000000000000000000000000000000081525081526020016040518060400160405280600781526020017f457374726164610000000000000000000000000000000000000000000000000081525081526020016040518060400160405280600981526020017f436f6e747265726173000000000000000000000000000000000000000000000081525081526020016040518060400160405280600781526020017f4261726e6574740000000000000000000000000000000000000000000000000081525081526020016040518060400160405280600881526020017f43616c6477656c6c00000000000000000000000000000000000000000000000081525081526020016040518060400160405280600881526020017f53616e746961676f00000000000000000000000000000000000000000000000081525081526020016040518060400160405280600781526020017f4c616d626572740000000000000000000000000000000000000000000000000081525081525060169061012f6200a16c9291906200a5cc565b503480156200a17a57600080fd5b506040518060400160405280600b81526020017f4f6e436861696e4865726f0000000000000000000000000000000000000000008152506040518060400160405280600481526020017f4845524f0000000000000000000000000000000000000000000000000000000081525081600090805190602001906200a1ff9291906200a338565b5080600190805190602001906200a2189291906200a338565b5050506200a2666040518060400160405280601e81526020017f54686973206973206d79204e465420636f6e74726163742e20576f61682100008152506200a26c60201b620018831760201c565b6200a7ed565b6200a30c816040516024016200a28391906200a701565b6040516020818303038152906040527f41304fac000000000000000000000000000000000000000000000000000000007bffffffffffffffffffffffffffffffffffffffffffffffffffffffff19166020820180517bffffffffffffffffffffffffffffffffffffffffffffffffffffffff83818316178352505050506200a30f60201b60201c565b50565b60008151905060006a636f6e736f6c652e6c6f679050602083016000808483855afa5050505050565b8280546200a346906200a777565b90600052602060002090601f0160209004810192826200a36a57600085556200a3b6565b82601f106200a38557805160ff19168380011785556200a3b6565b828001600101855582156200a3b6579182015b828111156200a3b55782518255916020019190600101906200a398565b5b5090506200a3c591906200a633565b5090565b8280548282559060005260206000209081019282156200a41d579160200282015b828111156200a41c5782518290805190602001906200a40b9291906200a338565b50916020019190600101906200a3ea565b5b5090506200a42c91906200a652565b5090565b8280548282559060005260206000209081019282156200a484579160200282015b828111156200a4835782518290805190602001906200a4729291906200a338565b50916020019190600101906200a451565b5b5090506200a49391906200a652565b5090565b8280548282559060005260206000209081019282156200a4eb579160200282015b828111156200a4ea5782518290805190602001906200a4d99291906200a338565b50916020019190600101906200a4b8565b5b5090506200a4fa91906200a652565b5090565b8280548282559060005260206000209081019282156200a552579160200282015b828111156200a5515782518290805190602001906200a5409291906200a338565b50916020019190600101906200a51f565b5b5090506200a56191906200a652565b5090565b8280548282559060005260206000209081019282156200a5b9579160200282015b828111156200a5b85782518290805190602001906200a5a79291906200a338565b50916020019190600101906200a586565b5b5090506200a5c891906200a652565b5090565b8280548282559060005260206000209081019282156200a620579160200282015b828111156200a61f5782518290805190602001906200a60e9291906200a338565b50916020019190600101906200a5ed565b5b5090506200a62f91906200a652565b5090565b5b808211156200a64e5760008160009055506001016200a634565b5090565b5b808211156200a67657600081816200a66c91906200a67a565b506001016200a653565b5090565b5080546200a688906200a777565b6000825580601f106200a69c57506200a6bd565b601f0160209004906000526020600020908101906200a6bc91906200a633565b5b50565b60006200a6cd826200a725565b6200a6d981856200a730565b93506200a6eb8185602086016200a741565b6200a6f6816200a7dc565b840191505092915050565b600060208201905081810360008301526200a71d81846200a6c0565b905092915050565b600081519050919050565b600082825260208201905092915050565b60005b838110156200a7615780820151818401526020810190506200a744565b838111156200a771576000848401525b50505050565b600060028204905060018216806200a79057607f821691505b602082108114156200a7a7576200a7a66200a7ad565b5b50919050565b7f4e487b7100000000000000000000000000000000000000000000000000000000600052602260045260246000fd5b6000601f19601f8301169050919050565b614487806200a7fd6000396000f3fe608060405234801561001057600080fd5b50600436106101375760003560e01c806351c4d62a116100b8578063a22cb4651161007c578063a22cb465146103ac578063b88d4fde146103c8578063c7a5495c146103e4578063c87b56dd14610414578063de9d132f14610444578063e985e9c51461044e57610137565b806351c4d62a146102ce57806360626d52146102fe5780636352211e1461032e57806370a082311461035e57806395d89b411461038e57610137565b8063081812fc116100ff578063081812fc1461021a578063095ea7b31461024a57806323b872dd14610266578063427cec451461028257806342842e0e146102b257610137565b806301ffc9a71461013c57806306fdde031461016c578063074c9efe1461018a57806307b0e3ba146101ba57806307f77773146101ea575b600080fd5b61015660048036038101906101519190612cc9565b61047e565b60405161016391906135a8565b60405180910390f35b610174610560565b60405161018191906135c3565b60405180910390f35b6101a4600480360381019061019f9190612d1b565b6105f2565b6040516101b191906135c3565b60405180910390f35b6101d460048036038101906101cf9190612d1b565b610710565b6040516101e191906135c3565b60405180910390f35b61020460048036038101906101ff9190612d1b565b61082e565b60405161021191906135c3565b60405180910390f35b610234600480360381019061022f9190612d1b565b61094c565b6040516102419190613518565b60405180910390f35b610264600480360381019061025f9190612c8d565b6109d1565b005b610280600480360381019061027b9190612b87565b610ae9565b005b61029c60048036038101906102979190612d1b565b610b49565b6040516102a991906135c3565b60405180910390f35b6102cc60048036038101906102c79190612b87565b610c67565b005b6102e860048036038101906102e39190612d1b565b610c87565b6040516102f591906135c3565b60405180910390f35b61031860048036038101906103139190612d1b565b610da5565b60405161032591906135c3565b60405180910390f35b61034860048036038101906103439190612d1b565b610ec3565b6040516103559190613518565b60405180910390f35b61037860048036038101906103739190612b22565b610f75565b6040516103859190613823565b60405180910390f35b61039661102d565b6040516103a391906135c3565b60405180910390f35b6103c660048036038101906103c19190612c51565b6110bf565b005b6103e260048036038101906103dd9190612bd6565b611240565b005b6103fe60048036038101906103f99190612d1b565b6112a2565b60405161040b91906135c3565b60405180910390f35b61042e60048036038101906104299190612d1b565b6113c0565b60405161043b91906135c3565b60405180910390f35b61044c611512565b005b61046860048036038101906104639190612b4b565b6117ef565b60405161047591906135a8565b60405180910390f35b60007f80ac58cd000000000000000000000000000000000000000000000000000000007bffffffffffffffffffffffffffffffffffffffffffffffffffffffff1916827bffffffffffffffffffffffffffffffffffffffffffffffffffffffff1916148061054957507f5b5e139f000000000000000000000000000000000000000000000000000000007bffffffffffffffffffffffffffffffffffffffffffffffffffffffff1916827bffffffffffffffffffffffffffffffffffffffffffffffffffffffff1916145b8061055957506105588261191c565b5b9050919050565b60606000805461056f90613ae1565b80601f016020809104026020016040519081016040528092919081815260200182805461059b90613ae1565b80156105e85780601f106105bd576101008083540402835291602001916105e8565b820191906000526020600020905b8154815290600101906020018083116105cb57829003601f168201915b5050505050905090565b6060600061062661060284611986565b6040516020016106129190613441565b604051602081830303815290604052611b33565b9050601180549050816106399190613b8d565b905060118181548110610675577f4e487b7100000000000000000000000000000000000000000000000000000000600052603260045260246000fd5b90600052602060002001805461068a90613ae1565b80601f01602080910402602001604051908101604052809291908181526020018280546106b690613ae1565b80156107035780601f106106d857610100808354040283529160200191610703565b820191906000526020600020905b8154815290600101906020018083116106e657829003601f168201915b5050505050915050919050565b6060600061074461072084611986565b604051602001610730919061341f565b604051602081830303815290604052611b33565b9050601580549050816107579190613b8d565b905060158181548110610793577f4e487b7100000000000000000000000000000000000000000000000000000000600052603260045260246000fd5b9060005260206000200180546107a890613ae1565b80601f01602080910402602001604051908101604052809291908181526020018280546107d490613ae1565b80156108215780601f106107f657610100808354040283529160200191610821565b820191906000526020600020905b81548152906001019060200180831161080457829003601f168201915b5050505050915050919050565b6060600061086261083e84611986565b60405160200161084e91906133db565b604051602081830303815290604052611b33565b9050601280549050816108759190613b8d565b9050601281815481106108b1577f4e487b7100000000000000000000000000000000000000000000000000000000600052603260045260246000fd5b9060005260206000200180546108c690613ae1565b80601f01602080910402602001604051908101604052809291908181526020018280546108f290613ae1565b801561093f5780601f106109145761010080835404028352916020019161093f565b820191906000526020600020905b81548152906001019060200180831161092257829003601f168201915b5050505050915050919050565b600061095782611b66565b610996576040517f08c379a000000000000000000000000000000000000000000000000000000000815260040161098d90613783565b60405180910390fd5b6004600083815260200190815260200160002060009054906101000a900473ffffffffffffffffffffffffffffffffffffffff169050919050565b60006109dc82610ec3565b90508073ffffffffffffffffffffffffffffffffffffffff168373ffffffffffffffffffffffffffffffffffffffff161415610a4d576040517f08c379a0000000000000000000000000000000000000000000000000000000008152600401610a44906137e3565b60405180910390fd5b8073ffffffffffffffffffffffffffffffffffffffff16610a6c611bd2565b73ffffffffffffffffffffffffffffffffffffffff161480610a9b5750610a9a81610a95611bd2565b6117ef565b5b610ada576040517f08c379a0000000000000000000000000000000000000000000000000000000008152600401610ad1906136c3565b60405180910390fd5b610ae48383611bda565b505050565b610afa610af4611bd2565b82611c93565b610b39576040517f08c379a0000000000000000000000000000000000000000000000000000000008152600401610b3090613803565b60405180910390fd5b610b44838383611d71565b505050565b60606000610b7d610b5984611986565b604051602001610b699190613463565b604051602081830303815290604052611b33565b905060108054905081610b909190613b8d565b905060108181548110610bcc577f4e487b7100000000000000000000000000000000000000000000000000000000600052603260045260246000fd5b906000526020600020018054610be190613ae1565b80601f0160208091040260200160405190810160405280929190818152602001828054610c0d90613ae1565b8015610c5a5780601f10610c2f57610100808354040283529160200191610c5a565b820191906000526020600020905b815481529060010190602001808311610c3d57829003601f168201915b5050505050915050919050565b610c8283838360405180602001604052806000815250611240565b505050565b60606000610cbb610c9784611986565b604051602001610ca791906134a7565b604051602081830303815290604052611b33565b905060168054905081610cce9190613b8d565b905060168181548110610d0a577f4e487b7100000000000000000000000000000000000000000000000000000000600052603260045260246000fd5b906000526020600020018054610d1f90613ae1565b80601f0160208091040260200160405190810160405280929190818152602001828054610d4b90613ae1565b8015610d985780601f10610d6d57610100808354040283529160200191610d98565b820191906000526020600020905b815481529060010190602001808311610d7b57829003601f168201915b5050505050915050919050565b60606000610dd9610db584611986565b604051602001610dc591906134f6565b604051602081830303815290604052611b33565b905060148054905081610dec9190613b8d565b905060148181548110610e28577f4e487b7100000000000000000000000000000000000000000000000000000000600052603260045260246000fd5b906000526020600020018054610e3d90613ae1565b80601f0160208091040260200160405190810160405280929190818152602001828054610e6990613ae1565b8015610eb65780601f10610e8b57610100808354040283529160200191610eb6565b820191906000526020600020905b815481529060010190602001808311610e9957829003601f168201915b5050505050915050919050565b6000806002600084815260200190815260200160002060009054906101000a900473ffffffffffffffffffffffffffffffffffffffff169050600073ffffffffffffffffffffffffffffffffffffffff168173ffffffffffffffffffffffffffffffffffffffff161415610f6c576040517f08c379a0000000000000000000000000000000000000000000000000000000008152600401610f6390613703565b60405180910390fd5b80915050919050565b60008073ffffffffffffffffffffffffffffffffffffffff168273ffffffffffffffffffffffffffffffffffffffff161415610fe6576040517f08c379a0000000000000000000000000000000000000000000000000000000008152600401610fdd906136e3565b60405180910390fd5b600360008373ffffffffffffffffffffffffffffffffffffffff1673ffffffffffffffffffffffffffffffffffffffff168152602001908152602001600020549050919050565b60606001805461103c90613ae1565b80601f016020809104026020016040519081016040528092919081815260200182805461106890613ae1565b80156110b55780601f1061108a576101008083540402835291602001916110b5565b820191906000526020600020905b81548152906001019060200180831161109857829003601f168201915b5050505050905090565b6110c7611bd2565b73ffffffffffffffffffffffffffffffffffffffff168273ffffffffffffffffffffffffffffffffffffffff161415611135576040517f08c379a000000000000000000000000000000000000000000000000000000000815260040161112c90613683565b60405180910390fd5b8060056000611142611bd2565b73ffffffffffffffffffffffffffffffffffffffff1673ffffffffffffffffffffffffffffffffffffffff16815260200190815260200160002060008473ffffffffffffffffffffffffffffffffffffffff1673ffffffffffffffffffffffffffffffffffffffff16815260200190815260200160002060006101000a81548160ff0219169083151502179055508173ffffffffffffffffffffffffffffffffffffffff166111ef611bd2565b73ffffffffffffffffffffffffffffffffffffffff167f17307eab39ab6107e8899845ad3d59bd9653f200f220920489ca2b5937696c318360405161123491906135a8565b60405180910390a35050565b61125161124b611bd2565b83611c93565b611290576040517f08c379a000000000000000000000000000000000000000000000000000000000815260040161128790613803565b60405180910390fd5b61129c84848484611fcd565b50505050565b606060006112d66112b284611986565b6040516020016112c291906133fd565b604051602081830303815290604052611b33565b9050601380549050816112e99190613b8d565b905060138181548110611325577f4e487b7100000000000000000000000000000000000000000000000000000000600052603260045260246000fd5b90600052602060002001805461133a90613ae1565b80601f016020809104026020016040519081016040528092919081815260200182805461136690613ae1565b80156113b35780601f10611388576101008083540402835291602001916113b3565b820191906000526020600020905b81548152906001019060200180831161139657829003601f168201915b5050505050915050919050565b60606113cb82611b66565b61140a576040517f08c379a000000000000000000000000000000000000000000000000000000000815260040161140190613763565b60405180910390fd5b600060066000848152602001908152602001600020805461142a90613ae1565b80601f016020809104026020016040519081016040528092919081815260200182805461145690613ae1565b80156114a35780601f10611478576101008083540402835291602001916114a3565b820191906000526020600020905b81548152906001019060200180831161148657829003601f168201915b5050505050905060006114b4612029565b90506000815114156114ca57819250505061150d565b6000825111156114ff5780826040516020016114e79291906132a1565b6040516020818303038152906040529250505061150d565b61150884612040565b925050505b919050565b600061151e60076120e7565b9050600061152b826105f2565b90506000611538836112a2565b6115418461082e565b60405160200161155292919061337b565b60405160208183030381529060405290506000600861157085610b49565b6009604051602001611584939291906133aa565b6040516020818303038152906040529050600083600a6115a3876120f5565b6040516020016115b593929190613310565b60405160208183030381529060405290506000600b84600c6040516020016115df939291906133aa565b604051602081830303815290604052905060006115fb87610da5565b600d61160689610710565b61160f8a610c87565b60405160200161162092919061337b565b60405160208183030381529060405260405160200161164193929190613310565b60405160208183030381529060405290506000600e87600f60405160200161166b939291906133aa565b6040516020818303038152906040529050600085858585856040516020016116979594939291906132c5565b60405160208183030381529060405290506116b181611883565b60006116bc8a6120f5565b6040516020016116cc91906134c9565b60405160208183030381529060405290506000886116e9846122a8565b6040516020016116fa929190613341565b6040516020818303038152906040529050600061173783836040516020016117239291906132a1565b6040516020818303038152906040526122a8565b905060008160405160200161174c9190613485565b604051602081830303815290604052905061176681611883565b611770338e612466565b61177a8d82612484565b61178460076124f8565b6117a76040518060600160405280602581526020016143ed602591398e3361250e565b7febb98688741ffa4c7589bf325de30cf7becb63de567842e1ccdb6cb949fdc82c338e6040516117d892919061357f565b60405180910390a150505050505050505050505050565b6000600560008473ffffffffffffffffffffffffffffffffffffffff1673ffffffffffffffffffffffffffffffffffffffff16815260200190815260200160002060008373ffffffffffffffffffffffffffffffffffffffff1673ffffffffffffffffffffffffffffffffffffffff16815260200190815260200160002060009054906101000a900460ff16905092915050565b6119198160405160240161189791906135c3565b6040516020818303038152906040527f41304fac000000000000000000000000000000000000000000000000000000007bffffffffffffffffffffffffffffffffffffffffffffffffffffffff19166020820180517bffffffffffffffffffffffffffffffffffffffffffffffffffffffff83818316178352505050506125ad565b50565b60007f01ffc9a7000000000000000000000000000000000000000000000000000000007bffffffffffffffffffffffffffffffffffffffffffffffffffffffff1916827bffffffffffffffffffffffffffffffffffffffffffffffffffffffff1916149050919050565b606060008214156119ce576040518060400160405280600181526020017f30000000000000000000000000000000000000000000000000000000000000008152509050611b2e565b600082905060005b60008214611a005780806119e990613b44565b915050600a826119f99190613942565b91506119d6565b60008167ffffffffffffffff811115611a42577f4e487b7100000000000000000000000000000000000000000000000000000000600052604160045260246000fd5b6040519080825280601f01601f191660200182016040528015611a745781602001600182028036833780820191505090505b5090505b60008514611b2757600182611a8d91906139cd565b9150600a85611a9c9190613b8d565b6030611aa891906138ec565b60f81b818381518110611ae4577f4e487b7100000000000000000000000000000000000000000000000000000000600052603260045260246000fd5b60200101907effffffffffffffffffffffffffffffffffffffffffffffffffffffffffffff1916908160001a905350600a85611b209190613942565b9450611a78565b8093505050505b919050565b600081604051602001611b46919061328a565b6040516020818303038152906040528051906020012060001c9050919050565b60008073ffffffffffffffffffffffffffffffffffffffff166002600084815260200190815260200160002060009054906101000a900473ffffffffffffffffffffffffffffffffffffffff1673ffffffffffffffffffffffffffffffffffffffff1614159050919050565b600033905090565b816004600083815260200190815260200160002060006101000a81548173ffffffffffffffffffffffffffffffffffffffff021916908373ffffffffffffffffffffffffffffffffffffffff160217905550808273ffffffffffffffffffffffffffffffffffffffff16611c4d83610ec3565b73ffffffffffffffffffffffffffffffffffffffff167f8c5be1e5ebec7d5bd14f71427d1e84f3dd0314c0f7b2291e5b200ac8c7c3b92560405160405180910390a45050565b6000611c9e82611b66565b611cdd576040517f08c379a0000000000000000000000000000000000000000000000000000000008152600401611cd4906136a3565b60405180910390fd5b6000611ce883610ec3565b90508073ffffffffffffffffffffffffffffffffffffffff168473ffffffffffffffffffffffffffffffffffffffff161480611d5757508373ffffffffffffffffffffffffffffffffffffffff16611d3f8461094c565b73ffffffffffffffffffffffffffffffffffffffff16145b80611d685750611d6781856117ef565b5b91505092915050565b8273ffffffffffffffffffffffffffffffffffffffff16611d9182610ec3565b73ffffffffffffffffffffffffffffffffffffffff1614611de7576040517f08c379a0000000000000000000000000000000000000000000000000000000008152600401611dde906137a3565b60405180910390fd5b600073ffffffffffffffffffffffffffffffffffffffff168273ffffffffffffffffffffffffffffffffffffffff161415611e57576040517f08c379a0000000000000000000000000000000000000000000000000000000008152600401611e4e90613663565b60405180910390fd5b611e628383836125d6565b611e6d600082611bda565b6001600360008573ffffffffffffffffffffffffffffffffffffffff1673ffffffffffffffffffffffffffffffffffffffff1681526020019081526020016000206000828254611ebd91906139cd565b925050819055506001600360008473ffffffffffffffffffffffffffffffffffffffff1673ffffffffffffffffffffffffffffffffffffffff1681526020019081526020016000206000828254611f1491906138ec565b92505081905550816002600083815260200190815260200160002060006101000a81548173ffffffffffffffffffffffffffffffffffffffff021916908373ffffffffffffffffffffffffffffffffffffffff160217905550808273ffffffffffffffffffffffffffffffffffffffff168473ffffffffffffffffffffffffffffffffffffffff167fddf252ad1be2c89b69c2b068fc378daa952ba7f163c4a11628f55a4df523b3ef60405160405180910390a4505050565b611fd8848484611d71565b611fe4848484846125db565b612023576040517f08c379a000000000000000000000000000000000000000000000000000000000815260040161201a90613623565b60405180910390fd5b50505050565b606060405180602001604052806000815250905090565b606061204b82611b66565b61208a576040517f08c379a0000000000000000000000000000000000000000000000000000000008152600401612081906137c3565b60405180910390fd5b6000612094612029565b905060008151116120b457604051806020016040528060008152506120df565b806120be84611986565b6040516020016120cf9291906132a1565b6040516020818303038152906040525b915050919050565b600081600001549050919050565b6060600082141561213d576040518060400160405280600181526020017f300000000000000000000000000000000000000000000000000000000000000081525090506122a3565b600082905060005b6000821461216f57808061215890613b44565b915050600a826121689190613942565b9150612145565b60008167ffffffffffffffff8111156121b1577f4e487b7100000000000000000000000000000000000000000000000000000000600052604160045260246000fd5b6040519080825280601f01601f1916602001820160405280156121e35781602001600182028036833780820191505090505b50905060008290508593505b6000841461229b57600a846122049190613b8d565b603061221091906138ec565b60f81b828261221e90613ab7565b92508281518110612258577f4e487b7100000000000000000000000000000000000000000000000000000000600052603260045260246000fd5b60200101907effffffffffffffffffffffffffffffffffffffffffffffffffffffffffffff1916908160001a905350600a846122949190613942565b93506121ef565b819450505050505b919050565b606060008251905060008114156122d15760405180602001604052806000815250915050612461565b600060036002836122e291906138ec565b6122ec9190613942565b60046122f89190613973565b9050600060208261230991906138ec565b67ffffffffffffffff811115612348577f4e487b7100000000000000000000000000000000000000000000000000000000600052604160045260246000fd5b6040519080825280601f01601f19166020018201604052801561237a5781602001600182028036833780820191505090505b5090506000604051806060016040528060408152602001614412604091399050600181016020830160005b8681101561241e5760038101905062ffffff818a015116603f8160121c168401518060081b905060ff603f83600c1c1686015116810190508060081b905060ff603f8360061c1686015116810190508060081b905060ff603f831686015116810190508060e01b905080845260048401935050506123a5565b506003860660018114612438576002811461244857612453565b613d3d60f01b6002830352612453565b603d60f81b60018303525b508484525050819450505050505b919050565b612480828260405180602001604052806000815250612772565b5050565b61248d82611b66565b6124cc576040517f08c379a00000000000000000000000000000000000000000000000000000000081526004016124c390613723565b60405180910390fd5b806006600084815260200190815260200160002090805190602001906124f39291906129ae565b505050565b6001816000016000828254019250508190555050565b6125a8838383604051602401612526939291906135e5565b6040516020818303038152906040527fe3849f79000000000000000000000000000000000000000000000000000000007bffffffffffffffffffffffffffffffffffffffffffffffffffffffff19166020820180517bffffffffffffffffffffffffffffffffffffffffffffffffffffffff83818316178352505050506125ad565b505050565b60008151905060006a636f6e736f6c652e6c6f679050602083016000808483855afa5050505050565b505050565b60006125fc8473ffffffffffffffffffffffffffffffffffffffff166127cd565b15612765578373ffffffffffffffffffffffffffffffffffffffff1663150b7a02612625611bd2565b8786866040518563ffffffff1660e01b81526004016126479493929190613533565b602060405180830381600087803b15801561266157600080fd5b505af192505050801561269257506040513d601f19601f8201168201806040525081019061268f9190612cf2565b60015b612715573d80600081146126c2576040519150601f19603f3d011682016040523d82523d6000602084013e6126c7565b606091505b5060008151141561270d576040517f08c379a000000000000000000000000000000000000000000000000000000000815260040161270490613623565b60405180910390fd5b805181602001fd5b63150b7a0260e01b7bffffffffffffffffffffffffffffffffffffffffffffffffffffffff1916817bffffffffffffffffffffffffffffffffffffffffffffffffffffffff19161491505061276a565b600190505b949350505050565b61277c83836127e0565b61278960008484846125db565b6127c8576040517f08c379a00000000000000000000000000000000000000000000000000000000081526004016127bf90613623565b60405180910390fd5b505050565b600080823b905060008111915050919050565b600073ffffffffffffffffffffffffffffffffffffffff168273ffffffffffffffffffffffffffffffffffffffff161415612850576040517f08c379a000000000000000000000000000000000000000000000000000000000815260040161284790613743565b60405180910390fd5b61285981611b66565b15612899576040517f08c379a000000000000000000000000000000000000000000000000000000000815260040161289090613643565b60405180910390fd5b6128a5600083836125d6565b6001600360008473ffffffffffffffffffffffffffffffffffffffff1673ffffffffffffffffffffffffffffffffffffffff16815260200190815260200160002060008282546128f591906138ec565b92505081905550816002600083815260200190815260200160002060006101000a81548173ffffffffffffffffffffffffffffffffffffffff021916908373ffffffffffffffffffffffffffffffffffffffff160217905550808273ffffffffffffffffffffffffffffffffffffffff16600073ffffffffffffffffffffffffffffffffffffffff167fddf252ad1be2c89b69c2b068fc378daa952ba7f163c4a11628f55a4df523b3ef60405160405180910390a45050565b8280546129ba90613ae1565b90600052602060002090601f0160209004810192826129dc5760008555612a23565b82601f106129f557805160ff1916838001178555612a23565b82800160010185558215612a23579182015b82811115612a22578251825591602001919060010190612a07565b5b509050612a309190612a34565b5090565b5b80821115612a4d576000816000905550600101612a35565b5090565b6000612a64612a5f84613863565b61383e565b905082815260208101848484011115612a7c57600080fd5b612a87848285613a75565b509392505050565b600081359050612a9e81614390565b92915050565b600081359050612ab3816143a7565b92915050565b600081359050612ac8816143be565b92915050565b600081519050612add816143be565b92915050565b600082601f830112612af457600080fd5b8135612b04848260208601612a51565b91505092915050565b600081359050612b1c816143d5565b92915050565b600060208284031215612b3457600080fd5b6000612b4284828501612a8f565b91505092915050565b60008060408385031215612b5e57600080fd5b6000612b6c85828601612a8f565b9250506020612b7d85828601612a8f565b9150509250929050565b600080600060608486031215612b9c57600080fd5b6000612baa86828701612a8f565b9350506020612bbb86828701612a8f565b9250506040612bcc86828701612b0d565b9150509250925092565b60008060008060808587031215612bec57600080fd5b6000612bfa87828801612a8f565b9450506020612c0b87828801612a8f565b9350506040612c1c87828801612b0d565b925050606085013567ffffffffffffffff811115612c3957600080fd5b612c4587828801612ae3565b91505092959194509250565b60008060408385031215612c6457600080fd5b6000612c7285828601612a8f565b9250506020612c8385828601612aa4565b9150509250929050565b60008060408385031215612ca057600080fd5b6000612cae85828601612a8f565b9250506020612cbf85828601612b0d565b9150509250929050565b600060208284031215612cdb57600080fd5b6000612ce984828501612ab9565b91505092915050565b600060208284031215612d0457600080fd5b6000612d1284828501612ace565b91505092915050565b600060208284031215612d2d57600080fd5b6000612d3b84828501612b0d565b91505092915050565b612d4d81613a01565b82525050565b612d5c81613a13565b82525050565b6000612d6d826138a9565b612d7781856138bf565b9350612d87818560208601613a84565b612d9081613c7a565b840191505092915050565b6000612da6826138b4565b612db081856138d0565b9350612dc0818560208601613a84565b612dc981613c7a565b840191505092915050565b6000612ddf826138b4565b612de981856138e1565b9350612df9818560208601613a84565b80840191505092915050565b60008154612e1281613ae1565b612e1c81866138e1565b94506001821660008114612e375760018114612e4857612e7b565b60ff19831686528186019350612e7b565b612e5185613894565b60005b83811015612e7357815481890152600182019150602081019050612e54565b838801955050505b50505092915050565b6000612e916032836138d0565b9150612e9c82613c8b565b604082019050919050565b6000612eb46004836138e1565b9150612ebf82613cda565b600482019050919050565b6000612ed7601c836138d0565b9150612ee282613d03565b602082019050919050565b6000612efa6006836138e1565b9150612f0582613d2c565b600682019050919050565b6000612f1d600a836138e1565b9150612f2882613d55565b600a82019050919050565b6000612f406024836138d0565b9150612f4b82613d7e565b604082019050919050565b6000612f636019836138d0565b9150612f6e82613dcd565b602082019050919050565b6000612f866048836138e1565b9150612f9182613df6565b604882019050919050565b6000612fa9602c836138d0565b9150612fb482613e6b565b604082019050919050565b6000612fcc600a836138e1565b9150612fd782613eba565b600a82019050919050565b6000612fef6024836138e1565b9150612ffa82613ee3565b602482019050919050565b60006130126001836138e1565b915061301d82613f32565b600182019050919050565b60006130356038836138d0565b915061304082613f5b565b604082019050919050565b6000613058602a836138d0565b915061306382613faa565b604082019050919050565b600061307b6029836138d0565b915061308682613ff9565b604082019050919050565b600061309e602e836138d0565b91506130a982614048565b604082019050919050565b60006130c16002836138e1565b91506130cc82614097565b600282019050919050565b60006130e46020836138d0565b91506130ef826140c0565b602082019050919050565b60006131076031836138d0565b9150613112826140e9565b604082019050919050565b600061312a602c836138d0565b915061313582614138565b604082019050919050565b600061314d6008836138e1565b915061315882614187565b600882019050919050565b60006131706029836138d0565b915061317b826141b0565b604082019050919050565b6000613193602f836138d0565b915061319e826141ff565b604082019050919050565b60006131b66021836138d0565b91506131c18261424e565b604082019050919050565b60006131d9601d836138e1565b91506131e48261429d565b601d82019050919050565b60006131fc6031836138d0565b9150613207826142c6565b604082019050919050565b600061321f6009836138e1565b915061322a82614315565b600982019050919050565b60006132426017836138e1565b915061324d8261433e565b601782019050919050565b60006132656005836138e1565b915061327082614367565b600582019050919050565b61328481613a6b565b82525050565b60006132968284612dd4565b915081905092915050565b60006132ad8285612dd4565b91506132b98284612dd4565b91508190509392505050565b60006132d18288612dd4565b91506132dd8287612dd4565b91506132e98286612dd4565b91506132f58285612dd4565b91506133018284612dd4565b91508190509695505050505050565b600061331c8286612dd4565b91506133288285612e05565b91506133348284612dd4565b9150819050949350505050565b600061334d8285612dd4565b915061335882612f79565b91506133648284612dd4565b915061336f826130b4565b91508190509392505050565b60006133878285612dd4565b915061339282613005565b915061339e8284612dd4565b91508190509392505050565b60006133b68286612e05565b91506133c28285612dd4565b91506133ce8284612e05565b9150819050949350505050565b60006133e682612ea7565b91506133f28284612dd4565b915081905092915050565b600061340882612eed565b91506134148284612dd4565b915081905092915050565b600061342a82612f10565b91506134368284612dd4565b915081905092915050565b600061344c82612fbf565b91506134588284612dd4565b915081905092915050565b600061346e82613140565b915061347a8284612dd4565b915081905092915050565b6000613490826131cc565b915061349c8284612dd4565b915081905092915050565b60006134b282613212565b91506134be8284612dd4565b915081905092915050565b60006134d482613235565b91506134e08284612dd4565b91506134eb82612fe2565b915081905092915050565b600061350182613258565b915061350d8284612dd4565b915081905092915050565b600060208201905061352d6000830184612d44565b92915050565b60006080820190506135486000830187612d44565b6135556020830186612d44565b613562604083018561327b565b81810360608301526135748184612d62565b905095945050505050565b60006040820190506135946000830185612d44565b6135a1602083018461327b565b9392505050565b60006020820190506135bd6000830184612d53565b92915050565b600060208201905081810360008301526135dd8184612d9b565b905092915050565b600060608201905081810360008301526135ff8186612d9b565b905061360e602083018561327b565b61361b6040830184612d44565b949350505050565b6000602082019050818103600083015261363c81612e84565b9050919050565b6000602082019050818103600083015261365c81612eca565b9050919050565b6000602082019050818103600083015261367c81612f33565b9050919050565b6000602082019050818103600083015261369c81612f56565b9050919050565b600060208201905081810360008301526136bc81612f9c565b9050919050565b600060208201905081810360008301526136dc81613028565b9050919050565b600060208201905081810360008301526136fc8161304b565b9050919050565b6000602082019050818103600083015261371c8161306e565b9050919050565b6000602082019050818103600083015261373c81613091565b9050919050565b6000602082019050818103600083015261375c816130d7565b9050919050565b6000602082019050818103600083015261377c816130fa565b9050919050565b6000602082019050818103600083015261379c8161311d565b9050919050565b600060208201905081810360008301526137bc81613163565b9050919050565b600060208201905081810360008301526137dc81613186565b9050919050565b600060208201905081810360008301526137fc816131a9565b9050919050565b6000602082019050818103600083015261381c816131ef565b9050919050565b6000602082019050613838600083018461327b565b92915050565b6000613848613859565b90506138548282613b13565b919050565b6000604051905090565b600067ffffffffffffffff82111561387e5761387d613c4b565b5b61388782613c7a565b9050602081019050919050565b60008190508160005260206000209050919050565b600081519050919050565b600081519050919050565b600082825260208201905092915050565b600082825260208201905092915050565b600081905092915050565b60006138f782613a6b565b915061390283613a6b565b9250827fffffffffffffffffffffffffffffffffffffffffffffffffffffffffffffffff0382111561393757613936613bbe565b5b828201905092915050565b600061394d82613a6b565b915061395883613a6b565b92508261396857613967613bed565b5b828204905092915050565b600061397e82613a6b565b915061398983613a6b565b9250817fffffffffffffffffffffffffffffffffffffffffffffffffffffffffffffffff04831182151516156139c2576139c1613bbe565b5b828202905092915050565b60006139d882613a6b565b91506139e383613a6b565b9250828210156139f6576139f5613bbe565b5b828203905092915050565b6000613a0c82613a4b565b9050919050565b60008115159050919050565b60007fffffffff0000000000000000000000000000000000000000000000000000000082169050919050565b600073ffffffffffffffffffffffffffffffffffffffff82169050919050565b6000819050919050565b82818337600083830152505050565b60005b83811015613aa2578082015181840152602081019050613a87565b83811115613ab1576000848401525b50505050565b6000613ac282613a6b565b91506000821415613ad657613ad5613bbe565b5b600182039050919050565b60006002820490506001821680613af957607f821691505b60208210811415613b0d57613b0c613c1c565b5b50919050565b613b1c82613c7a565b810181811067ffffffffffffffff82111715613b3b57613b3a613c4b565b5b80604052505050565b6000613b4f82613a6b565b91507fffffffffffffffffffffffffffffffffffffffffffffffffffffffffffffffff821415613b8257613b81613bbe565b5b600182019050919050565b6000613b9882613a6b565b9150613ba383613a6b565b925082613bb357613bb2613bed565b5b828206905092915050565b7f4e487b7100000000000000000000000000000000000000000000000000000000600052601160045260246000fd5b7f4e487b7100000000000000000000000000000000000000000000000000000000600052601260045260246000fd5b7f4e487b7100000000000000000000000000000000000000000000000000000000600052602260045260246000fd5b7f4e487b7100000000000000000000000000000000000000000000000000000000600052604160045260246000fd5b6000601f19601f8301169050919050565b7f4552433732313a207472616e7366657220746f206e6f6e20455243373231526560008201527f63656976657220696d706c656d656e7465720000000000000000000000000000602082015250565b7f4e4f554e00000000000000000000000000000000000000000000000000000000600082015250565b7f4552433732313a20746f6b656e20616c7265616479206d696e74656400000000600082015250565b7f5052454649580000000000000000000000000000000000000000000000000000600082015250565b7f46495253545f4e414d4500000000000000000000000000000000000000000000600082015250565b7f4552433732313a207472616e7366657220746f20746865207a65726f2061646460008201527f7265737300000000000000000000000000000000000000000000000000000000602082015250565b7f4552433732313a20617070726f766520746f2063616c6c657200000000000000600082015250565b7f2069737375656420627920746865204f6e436861696e4865726f20436f72707360008201527f2e222c2022696d616765223a2022646174613a696d6167652f7376672b786d6c60208201527f3b6261736536342c000000000000000000000000000000000000000000000000604082015250565b7f4552433732313a206f70657261746f7220717565727920666f72206e6f6e657860008201527f697374656e7420746f6b656e0000000000000000000000000000000000000000602082015250565b7f434152445f434f4c4f5200000000000000000000000000000000000000000000600082015250565b7f222c20226465736372697074696f6e223a20224865726f204c6963656e73652060008201527f666f722000000000000000000000000000000000000000000000000000000000602082015250565b7f2000000000000000000000000000000000000000000000000000000000000000600082015250565b7f4552433732313a20617070726f76652063616c6c6572206973206e6f74206f7760008201527f6e6572206e6f7220617070726f76656420666f7220616c6c0000000000000000602082015250565b7f4552433732313a2062616c616e636520717565727920666f7220746865207a6560008201527f726f206164647265737300000000000000000000000000000000000000000000602082015250565b7f4552433732313a206f776e657220717565727920666f72206e6f6e657869737460008201527f656e7420746f6b656e0000000000000000000000000000000000000000000000602082015250565b7f45524337323155524953746f726167653a2055524920736574206f66206e6f6e60008201527f6578697374656e7420746f6b656e000000000000000000000000000000000000602082015250565b7f227d000000000000000000000000000000000000000000000000000000000000600082015250565b7f4552433732313a206d696e7420746f20746865207a65726f2061646472657373600082015250565b7f45524337323155524953746f726167653a2055524920717565727920666f722060008201527f6e6f6e6578697374656e7420746f6b656e000000000000000000000000000000602082015250565b7f4552433732313a20617070726f76656420717565727920666f72206e6f6e657860008201527f697374656e7420746f6b656e0000000000000000000000000000000000000000602082015250565b7f42475f434f4c4f52000000000000000000000000000000000000000000000000600082015250565b7f4552433732313a207472616e73666572206f6620746f6b656e2074686174206960008201527f73206e6f74206f776e0000000000000000000000000000000000000000000000602082015250565b7f4552433732314d657461646174613a2055524920717565727920666f72206e6f60008201527f6e6578697374656e7420746f6b656e0000000000000000000000000000000000602082015250565b7f4552433732313a20617070726f76616c20746f2063757272656e74206f776e6560008201527f7200000000000000000000000000000000000000000000000000000000000000602082015250565b7f646174613a6170706c69636174696f6e2f6a736f6e3b6261736536342c000000600082015250565b7f4552433732313a207472616e736665722063616c6c6572206973206e6f74206f60008201527f776e6572206e6f7220617070726f766564000000000000000000000000000000602082015250565b7f4c4153545f4e414d450000000000000000000000000000000000000000000000600082015250565b7f7b226e616d65223a20224f6e436861696e4865726f2023000000000000000000600082015250565b7f504f574552000000000000000000000000000000000000000000000000000000600082015250565b61439981613a01565b81146143a457600080fd5b50565b6143b081613a13565b81146143bb57600080fd5b50565b6143c781613a1f565b81146143d257600080fd5b50565b6143de81613a6b565b81146143e957600080fd5b5056fe416e204e465420772f20494420257320686173206265656e206d696e74656420746f2025734142434445464748494a4b4c4d4e4f505152535455565758595a6162636465666768696a6b6c6d6e6f707172737475767778797a303132333435363738392b2fa264697066735822122007f9589c9a479da8e2e2e651db71dd35a69be8cc67c10345fd0a8d7c1cd97d4364736f6c634300080400332720643d274d323530203130306c2d3430203830203130302d32302d34302037307a272f3e3c7465787420783d273730252720793d273637252720636c6173733d276e756d6265722720646f6d696e616e742d626173656c696e653d276d6964646c652720746578742d616e63686f723d276d6964646c65273e4973737565642042793c2f746578743e3c7465787420783d273730252720793d273730252720636c6173733d276e756d6265722720646f6d696e616e742d626173656c696e653d276d6964646c652720746578742d616e63686f723d276d6964646c65273e4f6e436861696e4865726f20436f7270733c2f746578743e3c2f7376673e2720783d2735252720793d27323025272072783d27323027207374796c653d272d7765626b69742d66696c7465723a64726f702d736861646f77283020302031307078207267626128302c302c302c2e352929272066696c7465723d2764726f702d736861646f77283020302031307078207267626128302c302c302c2e352929272f3e3c726563742077696474683d2738382527206865696768743d27353825272066696c6c3d27236666662720783d2736252720793d27323125272072783d273138272f3e3c7465787420783d273130252720793d273330252720636c6173733d27626173652720646f6d696e616e742d626173656c696e653d276d6964646c65273e5375706572204865726f204c6963656e73653c2f746578743e3c7465787420783d273130252720793d273334252720636c6173733d276e756d6265722720646f6d696e616e742d626173656c696e653d276d6964646c65273e4c6963656e736520233c2f746578743e3c7465787420783d273130252720793d273634252720636c6173733d276c6162656c2720646f6d696e616e742d626173656c696e653d276d6964646c65273e436976696c69616e204e616d653c2f746578743e3c7465787420783d273130252720793d273639252720636c6173733d27626173652720646f6d696e616e742d626173656c696e653d276d6964646c65273e3c2f746578743e3c7465787420783d273130252720793d273532252720636c6173733d276c6162656c2720646f6d696e616e742d626173656c696e653d276d6964646c65273e537570657220506f7765723c2f746578743e3c7465787420783d273130252720793d273537252720636c6173733d27626173652720646f6d696e616e742d626173656c696e653d276d6964646c65273e3c2f746578743e3c7465787420783d273130252720793d273430252720636c6173733d276c6162656c2720646f6d696e616e742d626173656c696e653d276d6964646c65273e4865726f204e616d653c2f746578743e3c7465787420783d273130252720793d273435252720636c6173733d27626173652720646f6d696e616e742d626173656c696e653d276d6964646c65273e3c73766720786d6c6e733d27687474703a2f2f7777772e77332e6f72672f323030302f73766727207072657365727665417370656374526174696f3d27784d696e594d696e206d656574272076696577426f783d273020302033353020333530273e3c7374796c653e2e626173652c2e6c6162656c2c2e6e756d6265727b66696c6c3a233737373b666f6e742d66616d696c793a4d6f6e61636f2c73616e732d73657269663b666f6e742d73697a653a3870787d2e626173652c2e6c6162656c7b666f6e742d73697a653a313070787d2e626173657b66696c6c3a233232323b666f6e742d73697a653a313270783b666f6e742d7765696768743a3630307d3c2f7374796c653e3c726563742077696474683d273130302527206865696768743d2731303025272066696c6c3d273c2f746578743e3c706174682066696c6c3d27236565652720643d274d323430203130306c2d3430203830203130302d32302d34302037307a272f3e3c706174682066696c6c3d27272f3e3c726563742077696474683d2739302527206865696768743d27363025272066696c6c3d27",
  "linkReferences": {},
  "deployedLinkReferences": {}
}